{
  "contractName": "DelayedPayment",
  "abi": [
    {
      "constant": false,
      "inputs": [],
      "name": "payout",
      "outputs": [
        {
          "name": "",
          "type": "bool"
        }
      ],
      "payable": false,
      "stateMutability": "nonpayable",
      "type": "function"
    },
    {
      "constant": true,
      "inputs": [],
      "name": "scheduler",
      "outputs": [
        {
          "name": "",
          "type": "address"
        }
      ],
      "payable": false,
      "stateMutability": "view",
      "type": "function"
    },
    {
      "inputs": [
        {
          "name": "_scheduler",
          "type": "address"
        },
        {
          "name": "_numBlocks",
          "type": "uint256"
        },
        {
          "name": "_recipient",
          "type": "address"
        }
      ],
      "payable": false,
      "stateMutability": "nonpayable",
      "type": "constructor"
    },
    {
      "payable": false,
      "stateMutability": "nonpayable",
      "type": "fallback"
    }
  ],
  "bytecode": "0x6060604052341561000f57600080fd5b60405160608061047583398101604052808051906020019091908051906020019091908051906020019091905050826000806101000a81548173ffffffffffffffffffffffffffffffffffffffff021916908373ffffffffffffffffffffffffffffffffffffffff16021790555081430160018190555080600260006101000a81548173ffffffffffffffffffffffffffffffffffffffff021916908373ffffffffffffffffffffffffffffffffffffffff1602179055506000809054906101000a900473ffffffffffffffffffffffffffffffffffffffff1673ffffffffffffffffffffffffffffffffffffffff16630801b654671bc16d674ec80000600260009054906101000a900473ffffffffffffffffffffffffffffffffffffffff1661010060405190810160405280621e848081526020016000815260200160ff815260200160015481526020016406fc23ac008152602001613039815260200162036cc78152602001614e208152506000604051602001526040518463ffffffff167c0100000000000000000000000000000000000000000000000000000000028152600401808373ffffffffffffffffffffffffffffffffffffffff1673ffffffffffffffffffffffffffffffffffffffff1681526020018060200183600860200280838360005b838110156102135780820151818401526020810190506101f8565b5050505090500182810382526000815260200160200193505050506020604051808303818588803b151561024657600080fd5b6125ee5a03f1151561025757600080fd5b505050506040518051905050505050610200806102756000396000f30060606040526004361061004c576000357c0100000000000000000000000000000000000000000000000000000000900463ffffffff16806363bd1d4a1461008c578063d1ad17bf146100b9575b341561005757600080fd5b60003073ffffffffffffffffffffffffffffffffffffffff163111156100855761007f61010e565b5061008a565b600080fd5b005b341561009757600080fd5b61009f61010e565b604051808215151515815260200191505060405180910390f35b34156100c457600080fd5b6100cc6101a7565b604051808273ffffffffffffffffffffffffffffffffffffffff1673ffffffffffffffffffffffffffffffffffffffff16815260200191505060405180910390f35b600060015461011b6101cc565b10151561012757600080fd5b600260009054906101000a900473ffffffffffffffffffffffffffffffffffffffff1673ffffffffffffffffffffffffffffffffffffffff166108fc3073ffffffffffffffffffffffffffffffffffffffff16319081150290604051600060405180830381858888f1935050505015156101a057600080fd5b6001905090565b6000809054906101000a900473ffffffffffffffffffffffffffffffffffffffff1681565b6000439050905600a165627a7a72305820c1c551cac9bee37c62d29a177359f3b9d5ed142896f7dadf82c6898666d162600029",
  "source": "pragma solidity ^0.4.18;\n\nimport 'contracts/Interface/SchedulerInterface.sol';\n\n/// Example of using the Scheduler from a smart contract to delay a payment.\ncontract DelayedPayment {\n\n    SchedulerInterface public scheduler;\n\n    uint lockedUntil;\n    address recipient;\n\n    function DelayedPayment(\n        address _scheduler,\n        uint    _numBlocks,\n        address _recipient\n    ) {\n        scheduler = SchedulerInterface(_scheduler);\n        lockedUntil = block.number + _numBlocks;\n        recipient = _recipient;\n\n        scheduler.schedule.value(2 ether)(\n            recipient,              // toAddress\n            \"\",                     // callData\n            [\n                2000000,            // The amount of gas to be sent with the transaction.\n                0,                  // The amount of wei to be sent.\n                255,                // The size of the execution window.\n                lockedUntil,        // The start of the execution window.\n                30000000000 wei,    // The gasprice for the transaction (aka 30 gwei)\n                12345 wei,          // The donation included in the transaction.\n                224455 wei,         // The payment included in the transaction.\n                20000 wei           // The required amount of wei to claimer must send as deposit.\n            ]\n        );\n    }\n\n    function () {\n        if (this.balance > 0) {\n            payout();\n        } else {\n            revert();\n        }\n    }\n\n    function payout()\n        public returns (bool)\n    {\n        require(getNow() < lockedUntil);\n        recipient.transfer(this.balance);\n        return true;\n    }\n\n    function getNow()\n        internal view returns (uint)\n    {\n        return block.number;\n    }\n\n}",
  "sourcePath": "/home/logan/Work/ethereum-alarm-clock/contracts/_examples/DelayedPayment.sol",
  "compiler": {
    "name": "solc",
    "version": "0.4.18+commit.9cf6e910.Emscripten.clang"
  },
  "schemaVersion": "1.0.1",
  "updatedAt": "2018-01-14T21:00:01.915Z"
}