{
  "contractName": "PaymentLib",
  "abi": [
    {
      "constant": true,
      "inputs": [
        {
          "name": "_endowment",
          "type": "uint256"
        },
        {
          "name": "_payment",
          "type": "uint256"
        },
        {
          "name": "_donation",
          "type": "uint256"
        },
        {
          "name": "_callGas",
          "type": "uint256"
        },
        {
          "name": "_callValue",
          "type": "uint256"
        },
        {
          "name": "_gasPrice",
          "type": "uint256"
        },
        {
          "name": "_gasOverhead",
          "type": "uint256"
        }
      ],
      "name": "validateEndowment",
      "outputs": [
        {
          "name": "",
          "type": "bool"
        }
      ],
      "payable": false,
      "stateMutability": "pure",
      "type": "function"
    }
  ],
  "bytecode": "0x6060604052341561000f57600080fd5b6101f58061001e6000396000f300606060405260043610610041576000357c0100000000000000000000000000000000000000000000000000000000900463ffffffff16806327960c5f14610046575b600080fd5b61009260048080359060200190919080359060200190919080359060200190919080359060200190919080359060200190919080359060200190919080359060200190919050506100ac565b604051808215151515815260200191505060405180910390f35b60006100bc8787878787876100cc565b8810159050979650505050505050565b60006101116100dd8686858761011d565b61010360026100f58a8c61017290919063ffffffff16565b61019390919063ffffffff16565b61017290919063ffffffff16565b90509695505050505050565b60006101688461015a610139858761019390919063ffffffff16565b61014c868a61019390919063ffffffff16565b61017290919063ffffffff16565b61017290919063ffffffff16565b9050949350505050565b600080828401905083811015151561018957600080fd5b8091505092915050565b600080828402905060008414806101b457508284828115156101b157fe5b04145b15156101bf57600080fd5b80915050929150505600a165627a7a72305820630fd7299da2ed4abb8f38cf9b0d766cb75a66189d4f4bbd9e7943f2cb908cd00029",
  "source": "pragma solidity ^0.4.18;\n\nimport \"contracts/Library/ExecutionLib.sol\";\nimport \"contracts/Library/MathLib.sol\";\nimport \"contracts/zeppelin/SafeMath.sol\";\n\nlibrary PaymentLib {\n    using SafeMath for uint;\n\n    struct PaymentData {\n        uint payment;               /// The amount in wei to be paid to the executor of this TransactionRequest.\n\n        address paymentBenefactor;  /// The address that the payment should be sent to.\n\n        uint paymentOwed;           /// The amount that is owed to the paymentBenefactor.\n\n        uint donation;              /// The amount in wei that will be paid to the donationBenefactor address.\n\n        address donationBenefactor; /// The address that the donation should be sent to.\n\n        uint donationOwed;          /// The amount that is owed to the donationBenefactor.\n    }\n\n    ///---------------\n    /// GETTERS\n    ///---------------\n\n    /**\n     * @dev Getter function that returns true if a request has a benefactor.\n     */\n    function hasBenefactor(PaymentData storage self)\n        internal view returns (bool)\n    {\n        return self.donationBenefactor != 0x0;\n    }\n\n    /**\n     * @dev Computes the amount to send to the donationBenefactor. \n     */\n    function getDonation(PaymentData storage self) \n        internal view returns (uint)\n    {\n        return self.donation;\n    }\n\n    /**\n     * @dev Computes the amount to send to the address that fulfilled the request.\n     */\n    function getPayment(PaymentData storage self)\n        internal view returns (uint)\n    {\n        return self.payment;\n    }\n \n    /**\n     * @dev Computes the amount to send to the address that fulfilled the request\n     *       with an additional modifier. This is used when the call was claimed.\n     */\n    function getPaymentWithModifier(PaymentData storage self,\n                                    uint8 _paymentModifier)\n        internal view returns (uint)\n    {\n        return getPayment(self).mul(_paymentModifier).div(100);\n    }\n\n    ///---------------\n    /// SENDERS\n    ///---------------\n\n    /**\n     * @dev Send the donationOwed amount to the donationBenefactor.\n     * Note: The send is allowed to fail.\n     */\n    function sendDonation(PaymentData storage self) \n        internal returns (bool)\n    {\n        uint donationAmount = self.donationOwed;\n        if (donationAmount > 0) {\n            // re-entrance protection.\n            self.donationOwed = 0;\n            return self.donationBenefactor.send(donationAmount);\n        }\n        return true;\n    }\n\n    /**\n     * @dev Send the paymentOwed amount to the paymentBenefactor.\n     * Note: The send is allowed to fail.\n     */\n    function sendPayment(PaymentData storage self)\n        internal returns (bool)\n    {\n        uint paymentAmount = self.paymentOwed;\n        if (paymentAmount > 0) {\n            // re-entrance protection.\n            self.paymentOwed = 0;\n            return self.paymentBenefactor.send(paymentAmount);\n        }\n        return true;\n    }\n\n    ///---------------\n    /// HELPERS\n    ///---------------\n\n    /**\n     * @dev Compute the endowment value for the given TransactionRequest parameters.\n     * See request_factory.rst in docs folder under Check #1 for more information about\n     * this calculation.\n     */\n    function computeEndowment(\n        uint _payment,\n        uint _donation,\n        uint _callGas,\n        uint _callValue,\n        uint _gasPrice,\n        uint _gasOverhead\n    ) \n        internal pure returns (uint)\n    {\n        return _payment\n                .add(_donation).mul(2)\n                .add(_computeHelper(_callGas, _callValue, _gasOverhead, _gasPrice));\n    }\n\n    /// Was getting a stack depth error after replacing old MathLib with Zeppelin's SafeMath.\n    ///  Added this function to fix it.\n    ///  See for context: https://ethereum.stackexchange.com/questions/7325/stack-too-deep-try-removing-local-variables \n    function _computeHelper(\n        uint _callGas,\n        uint _callValue,\n        uint _gasOverhead,\n        uint _gasPrice\n    )\n        internal pure returns (uint)\n    {\n        return _callGas.mul(_gasPrice)\n                        .add(_gasOverhead.mul(_gasPrice))\n                        .add(_callValue);\n    }\n    /*\n     * Validation: ensure that the request endowment is sufficient to cover.\n     * - payment * maxMultiplier\n     * - donation * maxMultiplier\n     * - gasReimbursment\n     * - callValue\n     */\n    function validateEndowment(uint _endowment,\n                               uint _payment,\n                               uint _donation,\n                               uint _callGas,\n                               uint _callValue,\n                               uint _gasPrice,\n                               uint _gasOverhead)\n        public pure returns (bool)\n    {\n        return _endowment >= computeEndowment(\n            _payment,\n            _donation,\n            _callGas,\n            _callValue,\n            _gasPrice,\n            _gasOverhead\n        );\n    }\n}\n",
  "sourcePath": "contracts/Library/PaymentLib.sol",
  "compiler": {
    "name": "solc",
    "version": "0.4.18+commit.9cf6e910.Emscripten.clang"
  },
  "schemaVersion": "1.0.1",
  "updatedAt": "2018-01-06T02:43:01.752Z"
}