{
  "contractName": "RequestFactory",
  "abi": [
    {
      "constant": true,
      "inputs": [],
      "name": "requestTracker",
      "outputs": [
        {
          "name": "",
          "type": "address"
        }
      ],
      "payable": false,
      "stateMutability": "view",
      "type": "function"
    },
    {
      "constant": true,
      "inputs": [
        {
          "name": "_addressArgs",
          "type": "address[3]"
        },
        {
          "name": "_uintArgs",
          "type": "uint256[12]"
        },
        {
          "name": "_callData",
          "type": "bytes"
        },
        {
          "name": "_endowment",
          "type": "uint256"
        }
      ],
      "name": "validateRequestParams",
      "outputs": [
        {
          "name": "",
          "type": "bool[6]"
        }
      ],
      "payable": false,
      "stateMutability": "view",
      "type": "function"
    },
    {
      "constant": false,
      "inputs": [
        {
          "name": "_addressArgs",
          "type": "address[3]"
        },
        {
          "name": "_uintArgs",
          "type": "uint256[12]"
        },
        {
          "name": "_callData",
          "type": "bytes"
        }
      ],
      "name": "createRequest",
      "outputs": [
        {
          "name": "",
          "type": "address"
        }
      ],
      "payable": true,
      "stateMutability": "payable",
      "type": "function"
    },
    {
      "constant": true,
      "inputs": [
        {
          "name": "_address",
          "type": "address"
        }
      ],
      "name": "isKnownRequest",
      "outputs": [
        {
          "name": "isKnown",
          "type": "bool"
        }
      ],
      "payable": false,
      "stateMutability": "view",
      "type": "function"
    },
    {
      "constant": false,
      "inputs": [
        {
          "name": "_addressArgs",
          "type": "address[3]"
        },
        {
          "name": "_uintArgs",
          "type": "uint256[12]"
        },
        {
          "name": "_callData",
          "type": "bytes"
        }
      ],
      "name": "createValidatedRequest",
      "outputs": [
        {
          "name": "",
          "type": "address"
        }
      ],
      "payable": true,
      "stateMutability": "payable",
      "type": "function"
    },
    {
      "inputs": [
        {
          "name": "_trackerAddress",
          "type": "address"
        }
      ],
      "payable": false,
      "stateMutability": "nonpayable",
      "type": "constructor"
    },
    {
      "anonymous": false,
      "inputs": [
        {
          "indexed": false,
          "name": "error",
          "type": "uint8"
        }
      ],
      "name": "ValidationError",
      "type": "event"
    },
    {
      "anonymous": false,
      "inputs": [
        {
          "indexed": false,
          "name": "request",
          "type": "address"
        }
      ],
      "name": "RequestCreated",
      "type": "event"
    }
  ],
  "bytecode": "0x6060604052341561000f57600080fd5b6040516020806130298339810160405280805190602001909190505060008173ffffffffffffffffffffffffffffffffffffffff161415151561005157600080fd5b806000806101000a81548173ffffffffffffffffffffffffffffffffffffffff021916908373ffffffffffffffffffffffffffffffffffffffff16021790555050612f88806100a16000396000f30060606040526004361061006c576000357c0100000000000000000000000000000000000000000000000000000000900463ffffffff168062b7520e1461007157806348b47b8f146100c65780637c4cc101146101c15780639be91642146102ac578063d7ceab4c146102fd575b600080fd5b341561007c57600080fd5b6100846103e8565b604051808273ffffffffffffffffffffffffffffffffffffffff1673ffffffffffffffffffffffffffffffffffffffff16815260200191505060405180910390f35b34156100d157600080fd5b6101836004808060600190600380602002604051908101604052809291908260036020028082843782019150505050509190806101800190600c806020026040519081016040528092919082600c6020028082843782019150505050509190803590602001908201803590602001908080601f0160208091040260200160405190810160405280939291908181526020018383808284378201915050505050509190803590602001909190505061040d565b6040518082600660200280838360005b838110156101ae578082015181840152602081019050610193565b5050505090500191505060405180910390f35b61026a6004808060600190600380602002604051908101604052809291908260036020028082843782019150505050509190806101800190600c806020026040519081016040528092919082600c6020028082843782019150505050509190803590602001908201803590602001908080601f01602080910402602001604051908101604052809392919081815260200183838082843782019150505050505091905050610687565b604051808273ffffffffffffffffffffffffffffffffffffffff1673ffffffffffffffffffffffffffffffffffffffff16815260200191505060405180910390f35b34156102b757600080fd5b6102e3600480803573ffffffffffffffffffffffffffffffffffffffff16906020019091905050610a46565b604051808215151515815260200191505060405180910390f35b6103a66004808060600190600380602002604051908101604052809291908260036020028082843782019150505050509190806101800190600c806020026040519081016040528092919082600c6020028082843782019150505050509190803590602001908201803590602001908080601f01602080910402602001604051908101604052809392919081815260200183838082843782019150505050505091905050610a9c565b604051808273ffffffffffffffffffffffffffffffffffffffff1673ffffffffffffffffffffffffffffffffffffffff16815260200191505060405180910390f35b6000809054906101000a900473ffffffffffffffffffffffffffffffffffffffff1681565b610415610e28565b73__RequestLib____________________________6363351d696080604051908101604052803373ffffffffffffffffffffffffffffffffffffffff1673ffffffffffffffffffffffffffffffffffffffff16815260200188600060038110151561047c57fe5b602002015173ffffffffffffffffffffffffffffffffffffffff1673ffffffffffffffffffffffffffffffffffffffff1681526020018860016003811015156104c157fe5b602002015173ffffffffffffffffffffffffffffffffffffffff1673ffffffffffffffffffffffffffffffffffffffff16815260200188600260038110151561050657fe5b602002015173ffffffffffffffffffffffffffffffffffffffff1673ffffffffffffffffffffffffffffffffffffffff16815250868686600060405160c001526040518563ffffffff167c01000000000000000000000000000000000000000000000000000000000281526004018085600460200280838360005b8381101561059c578082015181840152602081019050610581565b5050505090500184600c60200280838360005b838110156105ca5780820151818401526020810190506105af565b5050505090500180602001838152602001828103825284818151815260200191508051906020019080838360005b838110156106135780820151818401526020810190506105f8565b50505050905090810190601f1680156106405780820380516001836020036101000a031916815260200191505b509550505050505060c06040518083038186803b151561065f57600080fd5b6102c65a03f4151561067057600080fd5b5050506040518060c0016040529050949350505050565b600080346080604051908101604052803373ffffffffffffffffffffffffffffffffffffffff1673ffffffffffffffffffffffffffffffffffffffff1681526020018760006003811015156106d857fe5b602002015173ffffffffffffffffffffffffffffffffffffffff1673ffffffffffffffffffffffffffffffffffffffff16815260200187600160038110151561071d57fe5b602002015173ffffffffffffffffffffffffffffffffffffffff1673ffffffffffffffffffffffffffffffffffffffff16815260200187600260038110151561076257fe5b602002015173ffffffffffffffffffffffffffffffffffffffff1673ffffffffffffffffffffffffffffffffffffffff1681525085856107a0610e52565b8084600460200280838360005b838110156107c85780820151818401526020810190506107ad565b5050505090500183600c60200280838360005b838110156107f65780820151818401526020810190506107db565b5050505090500180602001828103825283818151815260200191508051906020019080838360005b8381101561083957808201518184015260208101905061081e565b50505050905090810190601f1680156108665780820380516001836020036101000a031916815260200191505b509450505050506040518091039082f080151561088257600080fd5b9050905060018060008373ffffffffffffffffffffffffffffffffffffffff1673ffffffffffffffffffffffffffffffffffffffff16815260200190815260200160002060006101000a81548160ff0219169083151502179055507f60dc38bed424a87163b4220b98edb283977533b0a85a5743f8d35c28fd495e4781604051808273ffffffffffffffffffffffffffffffffffffffff1673ffffffffffffffffffffffffffffffffffffffff16815260200191505060405180910390a16000809054906101000a900473ffffffffffffffffffffffffffffffffffffffff1673ffffffffffffffffffffffffffffffffffffffff166309d33f1d82866007600c8110151561098d57fe5b60200201516000604051602001526040518363ffffffff167c0100000000000000000000000000000000000000000000000000000000028152600401808373ffffffffffffffffffffffffffffffffffffffff1673ffffffffffffffffffffffffffffffffffffffff16815260200182815260200192505050602060405180830381600087803b1515610a1f57600080fd5b6102c65a03f11515610a3057600080fd5b5050506040518051905050809150509392505050565b6000600160008373ffffffffffffffffffffffffffffffffffffffff1673ffffffffffffffffffffffffffffffffffffffff16815260200190815260200160002060009054906101000a900460ff169050919050565b6000610aa6610e28565b610ab28585853461040d565b90508073__IterTools_____________________________635fa77dac90916000604051602001526040518263ffffffff167c01000000000000000000000000000000000000000000000000000000000281526004018082600660200280838360005b83811015610b30578082015181840152602081019050610b15565b5050505090500191505060206040518083038186803b1515610b5157600080fd5b6102c65a03f41515610b6257600080fd5b505050604051805190501515610e1257806000600681101515610b8157fe5b60200201511515610bd6577f077a9c333594b471fbfcd18e36bfb234269fe83c1cbb6a332f0b228258bcc02a60006005811115610bba57fe5b604051808260ff1660ff16815260200191505060405180910390a15b806001600681101515610be557fe5b60200201511515610c3a577f077a9c333594b471fbfcd18e36bfb234269fe83c1cbb6a332f0b228258bcc02a60016005811115610c1e57fe5b604051808260ff1660ff16815260200191505060405180910390a15b806002600681101515610c4957fe5b60200201511515610c9e577f077a9c333594b471fbfcd18e36bfb234269fe83c1cbb6a332f0b228258bcc02a60026005811115610c8257fe5b604051808260ff1660ff16815260200191505060405180910390a15b806003600681101515610cad57fe5b60200201511515610d02577f077a9c333594b471fbfcd18e36bfb234269fe83c1cbb6a332f0b228258bcc02a60036005811115610ce657fe5b604051808260ff1660ff16815260200191505060405180910390a15b806004600681101515610d1157fe5b60200201511515610d66577f077a9c333594b471fbfcd18e36bfb234269fe83c1cbb6a332f0b228258bcc02a60046005811115610d4a57fe5b604051808260ff1660ff16815260200191505060405180910390a15b806005600681101515610d7557fe5b60200201511515610dc9577f077a9c333594b471fbfcd18e36bfb234269fe83c1cbb6a332f0b228258bcc02a600580811115610dad57fe5b604051808260ff1660ff16815260200191505060405180910390a15b3373ffffffffffffffffffffffffffffffffffffffff166108fc349081150290604051600060405180830381858888f193505050501515610e0957600080fd5b60009150610e20565b610e1d858585610687565b91505b509392505050565b60c0604051908101604052806006905b60001515815260200190600190039081610e385790505090565b6040516120fa80610e638339019056006060604052604051620020fa380380620020fa833981016040528090816080019081610180018051820191905050600073__RequestLib____________________________638c5bebf290918585856000604051602001526040518563ffffffff167c01000000000000000000000000000000000000000000000000000000000281526004018085815260200184600460200280838360005b83811015620000b557808201518184015260208101905062000098565b5050505090500183600c60200280838360005b83811015620000e5578082015181840152602081019050620000c8565b5050505090500180602001828103825283818151815260200191508051906020019080838360005b838110156200012a5780820151818401526020810190506200010d565b50505050905090810190601f168015620001585780820380516001836020036101000a031916815260200191505b509550505050505060206040518083038186803b15156200017857600080fd5b6102c65a03f415156200018a57600080fd5b5050506040518051905050505050611f5280620001a86000396000f3006060604052600436106100a4576000357c0100000000000000000000000000000000000000000000000000000000900463ffffffff1680634e417a98146100a65780634e71d92d14610134578063606deecd1461015657806361461954146102345780636720ceb1146102615780636949a0581461028e5780638dd8596c146102bb578063b311ee0c146102e8578063be6d055a14610315578063ea8a1af01461039e575b005b34156100b157600080fd5b6100b96103cb565b6040518080602001828103825283818151815260200191508051906020019080838360005b838110156100f95780820151818401526020810190506100de565b50505050905090810190601f1680156101265780820380516001836020036101000a031916815260200191505b509250505060405180910390f35b61013c610478565b604051808215151515815260200191505060405180910390f35b341561016157600080fd5b610169610489565b6040518085600660200280838360005b83811015610194578082015181840152602081019050610179565b5050505090500184600360200280838360005b838110156101c25780820151818401526020810190506101a7565b5050505090500183600f60200280838360005b838110156101f05780820151818401526020810190506101d5565b5050505090500182600160200280838360005b8381101561021e578082015181840152602081019050610203565b5050505090500194505050505060405180910390f35b341561023f57600080fd5b61024761066d565b604051808215151515815260200191505060405180910390f35b341561026c57600080fd5b61027461067e565b604051808215151515815260200191505060405180910390f35b341561029957600080fd5b6102a1610715565b604051808215151515815260200191505060405180910390f35b34156102c657600080fd5b6102ce6107ac565b604051808215151515815260200191505060405180910390f35b34156102f357600080fd5b6102fb610843565b604051808215151515815260200191505060405180910390f35b610384600480803573ffffffffffffffffffffffffffffffffffffffff1690602001909190803590602001908201803590602001908080601f016020809104026020016040519081016040528093929190818152602001838380828437820191505050505050919050506108d9565b604051808215151515815260200191505060405180910390f35b34156103a957600080fd5b6103b16109e6565b604051808215151515815260200191505060405180910390f35b6103d3611e56565b600080016001018054600181600116156101000203166002900480601f01602080910402602001604051908101604052809291908181526020018280546001816001161561010002031660029004801561046e5780601f106104435761010080835404028352916020019161046e565b820191906000526020600020905b81548152906001019060200180831161045157829003601f168201915b5050505050905090565b60006104846000610a7d565b905090565b610491611e6a565b610499611ea8565b6104a1611ed2565b6104a9611efb565b6104b36000610aea565b1561066257600060170160000160006017016006016000601701600701600060170160160183600680602002604051908101604052809291908260068015610546576020028201915b8160009054906101000a900473ffffffffffffffffffffffffffffffffffffffff1673ffffffffffffffffffffffffffffffffffffffff16815260200190600101908083116104fc575b50505050509350826003806020026040519081016040528092919082600380156105aa576020028201916000905b82829054906101000a900460ff161515815260200190600101906020826000010492830192600103820291508084116105745790505b5050505050925081600f806020026040519081016040528092919082600f80156105e9576020028201915b8154815260200190600101908083116105d5575b505050505091508060018060200260405190810160405280929190826001801561064e576020028201916000905b82829054906101000a900460ff1660ff16815260200190600101906020826000010492830192600103820291508084116106175790505b505050505090509350935093509350610667565b600080fd5b90919293565b60006106796000611118565b905090565b60008073__RequestLib____________________________633cf3789990916000604051602001526040518263ffffffff167c01000000000000000000000000000000000000000000000000000000000281526004018082815260200191505060206040518083038186803b15156106f557600080fd5b6102c65a03f4151561070657600080fd5b50505060405180519050905090565b60008073__RequestLib____________________________634074b91c90916000604051602001526040518263ffffffff167c01000000000000000000000000000000000000000000000000000000000281526004018082815260200191505060206040518083038186803b151561078c57600080fd5b6102c65a03f4151561079d57600080fd5b50505060405180519050905090565b60008073__RequestLib____________________________63c9b15e0590916000604051602001526040518263ffffffff167c01000000000000000000000000000000000000000000000000000000000281526004018082815260200191505060206040518083038186803b151561082357600080fd5b6102c65a03f4151561083457600080fd5b50505060405180519050905090565b60008073__RequestLib____________________________637994549a90916000604051602001526040518263ffffffff167c01000000000000000000000000000000000000000000000000000000000281526004018082815260200191505060206040518083038186803b15156108ba57600080fd5b6102c65a03f415156108cb57600080fd5b505050604051805190505090565b60003373ffffffffffffffffffffffffffffffffffffffff16600060050160000160009054906101000a900473ffffffffffffffffffffffffffffffffffffffff1673ffffffffffffffffffffffffffffffffffffffff16148015610947575061094660006011016116f6565b5b151561095257600080fd5b8273ffffffffffffffffffffffffffffffffffffffff16348360405180828051906020019080838360005b8381101561099857808201518184015260208101905061097d565b50505050905090810190601f1680156109c55780820380516001836020036101000a031916815260200191505b5091505060006040518083038185876187965a03f192505050905092915050565b60008073__RequestLib____________________________6332839d9890916000604051602001526040518263ffffffff167c01000000000000000000000000000000000000000000000000000000000281526004018082815260200191505060206040518083038186803b1515610a5d57600080fd5b6102c65a03f41515610a6e57600080fd5b50505060405180519050905090565b6000610a8882611712565b1515610a9357600080fd5b610ab4610aa283601101611783565b83600d016117ea90919063ffffffff16565b507fbcb472984264b16baa8cde752f2af002ea8ce06f35d81caee36625234edd2a4660405160405180910390a160019050919050565b600081600d0160000160009054906101000a900473ffffffffffffffffffffffffffffffffffffffff16826017016000016000600681101515610b2957fe5b0160006101000a81548173ffffffffffffffffffffffffffffffffffffffff021916908373ffffffffffffffffffffffffffffffffffffffff1602179055508160050160010160009054906101000a900473ffffffffffffffffffffffffffffffffffffffff16826017016000016001600681101515610ba557fe5b0160006101000a81548173ffffffffffffffffffffffffffffffffffffffff021916908373ffffffffffffffffffffffffffffffffffffffff1602179055508160050160000160009054906101000a900473ffffffffffffffffffffffffffffffffffffffff16826017016000016002600681101515610c2157fe5b0160006101000a81548173ffffffffffffffffffffffffffffffffffffffff021916908373ffffffffffffffffffffffffffffffffffffffff1602179055508160070160040160009054906101000a900473ffffffffffffffffffffffffffffffffffffffff16826017016000016003600681101515610c9d57fe5b0160006101000a81548173ffffffffffffffffffffffffffffffffffffffff021916908373ffffffffffffffffffffffffffffffffffffffff1602179055508160070160010160009054906101000a900473ffffffffffffffffffffffffffffffffffffffff16826017016000016004600681101515610d1957fe5b0160006101000a81548173ffffffffffffffffffffffffffffffffffffffff021916908373ffffffffffffffffffffffffffffffffffffffff1602179055508160000160000160009054906101000a900473ffffffffffffffffffffffffffffffffffffffff16826017016000016005600681101515610d9557fe5b0160006101000a81548173ffffffffffffffffffffffffffffffffffffffff021916908373ffffffffffffffffffffffffffffffffffffffff1602179055508160050160010160149054906101000a900460ff16826017016006016000600381101515610dfe57fe5b602091828204019190066101000a81548160ff0219169083151502179055508160050160010160159054906101000a900460ff16826017016006016001600381101515610e4757fe5b602091828204019190066101000a81548160ff0219169083151502179055508160050160010160169054906101000a900460ff16826017016006016002600381101515610e9057fe5b602091828204019190066101000a81548160ff02191690831515021790555081600d0160010154826017016007016000600f81101515610ecc57fe5b01819055508160070160030154826017016007016001600f81101515610eee57fe5b01819055508160070160050154826017016007016002600f81101515610f1057fe5b01819055508160070160000154826017016007016003600f81101515610f3257fe5b01819055508160070160020154826017016007016004600f81101515610f5457fe5b01819055508160110160050154826017016007016005600f81101515610f7657fe5b01819055508160110160030154826017016007016006600f81101515610f9857fe5b01819055508160110160040154826017016007016007600f81101515610fba57fe5b01819055508160110160000160009054906101000a900460ff166002811115610fdf57fe5b826017016007016008600f81101515610ff457fe5b01819055508160110160020154826017016007016009600f8110151561101657fe5b0181905550816011016001015482601701600701600a600f8110151561103857fe5b0181905550816000016003015482601701600701600b600f8110151561105a57fe5b0181905550816000016002015482601701600701600c600f8110151561107c57fe5b0181905550816000016004015482601701600701600d600f8110151561109e57fe5b018190555081600d016002015482601701600701600e600f811015156110c057fe5b018190555081600d0160030160009054906101000a900460ff168260170160160160006001811015156110ef57fe5b602091828204019190066101000a81548160ff021916908360ff16021790555060019050919050565b6000806000805a925061113e6161a86111308761185b565b61188190919063ffffffff16565b5a1015611197577fc008bc849b42227c61d5063a1313ce509a6e99211bfd59e827e417be6c65c81b6005600681111561117357fe5b604051808260ff1660ff16815260200191505060405180910390a1600093506116ee565b8460050160010160159054906101000a900460ff1615611203577fc008bc849b42227c61d5063a1313ce509a6e99211bfd59e827e417be6c65c81b600160068111156111df57fe5b604051808260ff1660ff16815260200191505060405180910390a1600093506116ee565b8460050160010160149054906101000a900460ff161561126f577fc008bc849b42227c61d5063a1313ce509a6e99211bfd59e827e417be6c65c81b6000600681111561124b57fe5b604051808260ff1660ff16815260200191505060405180910390a1600093506116ee565b61127b8560110161189d565b156112d2577fc008bc849b42227c61d5063a1313ce509a6e99211bfd59e827e417be6c65c81b600260068111156112ae57fe5b604051808260ff1660ff16815260200191505060405180910390a1600093506116ee565b6112de856011016116f6565b15611335577fc008bc849b42227c61d5063a1313ce509a6e99211bfd59e827e417be6c65c81b6003600681111561131157fe5b604051808260ff1660ff16815260200191505060405180910390a1600093506116ee565b61134185600d016118b5565b80156113a0575084600d0160000160009054906101000a900473ffffffffffffffffffffffffffffffffffffffff1673ffffffffffffffffffffffffffffffffffffffff163373ffffffffffffffffffffffffffffffffffffffff1614155b80156113b457506113b3856011016118fc565b5b1561140b577fc008bc849b42227c61d5063a1313ce509a6e99211bfd59e827e417be6c65c81b600460068111156113e757fe5b604051808260ff1660ff16815260200191505060405180910390a1600093506116ee565b3a856000016004015414151561146c577fc008bc849b42227c61d5063a1313ce509a6e99211bfd59e827e417be6c65c81b60068081111561144857fe5b604051808260ff1660ff16815260200191505060405180910390a1600093506116ee565b60018560050160010160156101000a81548160ff02191690831515021790555061149885600001611930565b8560050160010160166101000a81548160ff0219169083151502179055506114c285600701611a11565b156114f8576114ec85600701600501546114de87600701611a58565b611a6690919063ffffffff16565b85600701600501819055505b8460070160050154915061150e85600701611a87565b50338560070160010160006101000a81548173ffffffffffffffffffffffffffffffffffffffff021916908373ffffffffffffffffffffffffffffffffffffffff16021790555061156185600d016118b5565b156115f257611587856007016002015486600d0160010154611a6690919063ffffffff16565b8560070160020181905550600085600d01600101819055506115e285600701600201546115d487600d0160030160009054906101000a900460ff1688600701611b0f90919063ffffffff16565b611a6690919063ffffffff16565b8560070160020181905550611623565b611617856007016002015461160987600701611b4a565b611a6690919063ffffffff16565b85600701600201819055505b61164b62015f9061163d5a8661188190919063ffffffff16565b611a6690919063ffffffff16565b9050611679856007016002015461166b3a84611b5890919063ffffffff16565b611a6690919063ffffffff16565b85600701600201819055507f3e504bb8b225ad41f613b0c3c4205cdd752d1615b4d77cd1773417282fcfb5d98560070160020154838360405180848152602001838152602001828152602001935050505060405180910390a16116de85600701611b8e565b506116e885611c16565b50600193505b505050919050565b600061170182611ce2565b61170a83611d06565b119050919050565b600061172082600d016118b5565b15151561172c57600080fd5b8160050160010160149054906101000a900460ff1615151561174d57600080fd5b61175982601101611d29565b151561176457600080fd5b81600d0160020154341015151561177a57600080fd5b60019050919050565b6000806117d283600501546117c460646117b661179f88611d72565b6117a889611d06565b61188190919063ffffffff16565b611b5890919063ffffffff16565b611d9a90919063ffffffff16565b9050606481111515156117e157fe5b80915050919050565b6000338360000160006101000a81548173ffffffffffffffffffffffffffffffffffffffff021916908373ffffffffffffffffffffffffffffffffffffffff160217905550348360010181905550818360030160006101000a81548160ff021916908360ff16021790555092915050565b600061187a6202bf208360000160030154611a6690919063ffffffff16565b9050919050565b600082821115151561189257600080fd5b818303905092915050565b600081600101546118ad83611d06565b109050919050565b6000808260000160009054906101000a900473ffffffffffffffffffffffffffffffffffffffff1673ffffffffffffffffffffffffffffffffffffffff1614159050919050565b600061190782611d06565b826001015411158015611929575061191e82611db5565b61192783611d06565b105b9050919050565b60003a826004015414151561194457600080fd5b8160000160009054906101000a900473ffffffffffffffffffffffffffffffffffffffff1673ffffffffffffffffffffffffffffffffffffffff1682600201548360030154908460010160405180828054600181600116156101000203166002900480156119f35780601f106119c8576101008083540402835291602001916119f3565b820191906000526020600020905b8154815290600101906020018083116119d657829003601f168201915b5050915050600060405180830381858888f193505050509050919050565b6000808260040160009054906101000a900473ffffffffffffffffffffffffffffffffffffffff1673ffffffffffffffffffffffffffffffffffffffff1614159050919050565b600081600301549050919050565b6000808284019050838110151515611a7d57600080fd5b8091505092915050565b600080826005015490506000811115611b0457600083600501819055508260040160009054906101000a900473ffffffffffffffffffffffffffffffffffffffff1673ffffffffffffffffffffffffffffffffffffffff166108fc829081150290604051600060405180830381858888f193505050509150611b09565b600191505b50919050565b6000611b426064611b348460ff16611b2687611b4a565b611b5890919063ffffffff16565b611d9a90919063ffffffff16565b905092915050565b600081600001549050919050565b60008082840290506000841480611b795750828482811515611b7657fe5b04145b1515611b8457600080fd5b8091505092915050565b600080826002015490506000811115611c0b57600083600201819055508260010160009054906101000a900473ffffffffffffffffffffffffffffffffffffffff1673ffffffffffffffffffffffffffffffffffffffff166108fc829081150290604051600060405180830381858888f193505050509150611c10565b600191505b50919050565b600080611c7c8360070160050154611c6e8560070160020154611c6087600d01600101543073ffffffffffffffffffffffffffffffffffffffff163161188190919063ffffffff16565b61188190919063ffffffff16565b61188190919063ffffffff16565b90508260050160000160009054906101000a900473ffffffffffffffffffffffffffffffffffffffff1673ffffffffffffffffffffffffffffffffffffffff166108fc829081150290604051600060405180830381858888f19350505050915050919050565b6000611cff82600201548360010154611a6690919063ffffffff16565b9050919050565b6000611d228260000160009054906101000a900460ff16611dd9565b9050919050565b6000611d3482611d06565b611d3d83611d72565b11158015611d5a5750611d4f82611e32565b611d5883611d06565b105b15611d685760019050611d6d565b600090505b919050565b6000611d938260050154611d8584611e32565b61188190919063ffffffff16565b9050919050565b6000808284811515611da857fe5b0490508091505092915050565b6000611dd282600401548360010154611a6690919063ffffffff16565b9050919050565b6000600280811115611de757fe5b826002811115611df357fe5b1415611e0157429050611e2d565b60016002811115611e0e57fe5b826002811115611e1a57fe5b1415611e2857439050611e2d565b600080fd5b919050565b6000611e4f8260030154836001015461188190919063ffffffff16565b9050919050565b602060405190810160405280600081525090565b60c0604051908101604052806006905b600073ffffffffffffffffffffffffffffffffffffffff16815260200190600190039081611e7a5790505090565b6060604051908101604052806003905b60001515815260200190600190039081611eb85790505090565b6101e060405190810160405280600f905b6000815260200190600190039081611ee35790505090565b6020604051908101604052806001905b600060ff16815260200190600190039081611f0b57905050905600a165627a7a723058203aa25cbc1e2e3104be72a688a9a2cc6b3debd5e92b51a7311effda84a8198a270029a165627a7a7230582097def99a4b7e429e09e0a7e2c65dab9a21cd6f917a55343f8090f9fbe5606e480029",
  "source": "pragma solidity ^0.4.18;\n\nimport \"contracts/Interface/RequestFactoryInterface.sol\";\nimport \"contracts/Interface/RequestTrackerInterface.sol\";\nimport \"contracts/TransactionRequest.sol\";\nimport \"contracts/Library/RequestLib.sol\";\nimport \"contracts/IterTools.sol\";\n\n/**\n * @title RequestFactory\n * @dev Contract which will produce new TransactionRequests.\n */\ncontract RequestFactory is RequestFactoryInterface {\n    using IterTools for bool[6];\n\n    // RequestTracker of this contract.\n    RequestTrackerInterface public requestTracker;\n\n    function RequestFactory(address _trackerAddress) public {\n        require( _trackerAddress != 0x0 );\n\n        requestTracker = RequestTrackerInterface(_trackerAddress);\n    }\n\n    /**\n     * @dev The lowest level interface for creating a transaction request.\n     * \n     * @param _addressArgs [0] -  meta.owner\n     * @param _addressArgs [1] -  paymentData.donationBenefactor\n     * @param _addressArgs [2] -  txnData.toAddress\n     * @param _uintArgs [0]    -  paymentData.donation\n     * @param _uintArgs [1]    -  paymentData.payment\n     * @param _uintArgs [2]    -  schedule.claimWindowSize\n     * @param _uintArgs [3]    -  schedule.freezePeriod\n     * @param _uintArgs [4]    -  schedule.reservedWindowSize\n     * @param _uintArgs [5]    -  schedule.temporalUnit\n     * @param _uintArgs [6]    -  schedule.windowSize\n     * @param _uintArgs [7]    -  schedule.windowStart\n     * @param _uintArgs [8]    -  txnData.callGas\n     * @param _uintArgs [9]    -  txnData.callValue\n     * @param _uintArgs [10]   -  txnData.gasPrice\n     * @param _uintArgs [11]   -  claimData.requiredDeposit\n     * @param _callData        -  The call data\n     */\n    function createRequest(\n        address[3]  _addressArgs,\n        uint[12]    _uintArgs,\n        bytes       _callData\n    )\n        public payable returns (address)\n    {\n        TransactionRequest request = (new TransactionRequest).value(msg.value)(\n            [\n                msg.sender,       // Created by\n                _addressArgs[0],  // meta.owner\n                _addressArgs[1],  // paymentData.donationBenefactor\n                _addressArgs[2]   // txnData.toAddress\n            ],\n            _uintArgs,            //uint[12]\n            _callData\n        );\n\n        // Track the address locally\n        requests[address(request)] = true;\n\n        // Log the creation.\n        RequestCreated(address(request));\n\n        // Add the request to the RequestTracker\n        requestTracker.addRequest(address(request), _uintArgs[7]); // windowStart\n\n        return address(request);\n    }\n\n    /**\n     *  The same as createRequest except that it requires validation prior to\n     *  creation.\n     *\n     *  Parameters are the same as `createRequest`\n     */\n    function createValidatedRequest(\n        address[3]  _addressArgs,\n        uint[12]    _uintArgs,\n        bytes       _callData\n    ) \n        public payable returns (address)\n    {\n        bool[6] memory isValid = validateRequestParams(\n            _addressArgs,\n            _uintArgs,\n            _callData,\n            msg.value\n        );\n\n        if (!isValid.all()) {\n            if (!isValid[0]) {\n                ValidationError(uint8(Errors.InsufficientEndowment));\n            }\n            if (!isValid[1]) {\n                ValidationError(uint8(Errors.ReservedWindowBiggerThanExecutionWindow));\n            }\n            if (!isValid[2]) {\n                ValidationError(uint8(Errors.InvalidTemporalUnit));\n            }\n            if (!isValid[3]) {\n                ValidationError(uint8(Errors.ExecutionWindowTooSoon));\n            }\n            if (!isValid[4]) {\n                ValidationError(uint8(Errors.CallGasTooHigh));\n            }\n            if (!isValid[5]) {\n                ValidationError(uint8(Errors.EmptyToAddress));\n            }\n\n            // Try to return the ether sent with the message.  If this failed\n            // then revert() to force it to be returned\n            if (!msg.sender.send(msg.value)) {\n                revert();\n            }\n            return 0x0;\n        }\n\n        return createRequest(_addressArgs, _uintArgs, _callData);\n    }\n\n    /// ----------------------------\n    /// Internal\n    /// ----------------------------\n\n    /*\n     *  @dev The enum for launching `ValidationError` events and mapping them to an error.\n     */\n    enum Errors {\n        InsufficientEndowment,\n        ReservedWindowBiggerThanExecutionWindow,\n        InvalidTemporalUnit,\n        ExecutionWindowTooSoon,\n        CallGasTooHigh,\n        EmptyToAddress\n    }\n\n    event ValidationError(uint8 error);\n\n    /*\n     * @dev Validate the constructor arguments for either `createRequest` or `createValidatedRequest`.\n     */\n    function validateRequestParams(\n        address[3]  _addressArgs,\n        uint[12]    _uintArgs,\n        bytes       _callData,\n        uint        _endowment\n    )\n        public view returns (bool[6])\n    {\n        return RequestLib.validate(\n            [\n                msg.sender,      // meta.createdBy\n                _addressArgs[0],  // meta.owner\n                _addressArgs[1],  // paymentData.donationBenefactor\n                _addressArgs[2]   // txnData.toAddress\n            ],\n            _uintArgs,\n            _callData,\n            _endowment\n        );\n    }\n\n    /// Mapping to hold known requests.\n    mapping (address => bool) requests;\n\n    function isKnownRequest(address _address) \n        public view returns (bool isKnown)\n    {\n        return requests[_address];\n    }\n}",
  "sourcePath": "/home/logan/Work/ethereum-alarm-clock/contracts/RequestFactory.sol",
  "compiler": {
    "name": "solc",
    "version": "0.4.18+commit.9cf6e910.Emscripten.clang"
  },
  "schemaVersion": "1.0.1",
  "updatedAt": "2018-01-06T02:43:01.760Z"
}