{
  "contractName": "RequestFactory",
  "abi": [
    {
      "constant": true,
      "inputs": [],
      "name": "requestTracker",
      "outputs": [
        {
          "name": "",
          "type": "address"
        }
      ],
      "payable": false,
      "stateMutability": "view",
      "type": "function"
    },
    {
      "constant": false,
      "inputs": [
        {
          "name": "_addressArgs",
          "type": "address[3]"
        },
        {
          "name": "_uintArgs",
          "type": "uint256[11]"
        },
        {
          "name": "_callData",
          "type": "bytes"
        },
        {
          "name": "_endowment",
          "type": "uint256"
        }
      ],
      "name": "validateRequestParams",
      "outputs": [
        {
          "name": "",
          "type": "bool[6]"
        }
      ],
      "payable": false,
      "stateMutability": "nonpayable",
      "type": "function"
    },
    {
      "constant": false,
      "inputs": [
        {
          "name": "_addressArgs",
          "type": "address[3]"
        },
        {
          "name": "_uintArgs",
          "type": "uint256[11]"
        },
        {
          "name": "_callData",
          "type": "bytes"
        }
      ],
      "name": "createValidatedRequest",
      "outputs": [
        {
          "name": "",
          "type": "address"
        }
      ],
      "payable": true,
      "stateMutability": "payable",
      "type": "function"
    },
    {
      "constant": false,
      "inputs": [
        {
          "name": "_addressArgs",
          "type": "address[3]"
        },
        {
          "name": "_uintArgs",
          "type": "uint256[11]"
        },
        {
          "name": "_callData",
          "type": "bytes"
        }
      ],
      "name": "createRequest",
      "outputs": [
        {
          "name": "",
          "type": "address"
        }
      ],
      "payable": true,
      "stateMutability": "payable",
      "type": "function"
    },
    {
      "constant": true,
      "inputs": [
        {
          "name": "_address",
          "type": "address"
        }
      ],
      "name": "isKnownRequest",
      "outputs": [
        {
          "name": "isKnown",
          "type": "bool"
        }
      ],
      "payable": false,
      "stateMutability": "view",
      "type": "function"
    },
    {
      "inputs": [
        {
          "name": "_trackerAddress",
          "type": "address"
        }
      ],
      "payable": false,
      "stateMutability": "nonpayable",
      "type": "constructor"
    },
    {
      "anonymous": false,
      "inputs": [
        {
          "indexed": false,
          "name": "error",
          "type": "uint8"
        }
      ],
      "name": "ValidationError",
      "type": "event"
    },
    {
      "anonymous": false,
      "inputs": [
        {
          "indexed": false,
          "name": "request",
          "type": "address"
        }
      ],
      "name": "RequestCreated",
      "type": "event"
    }
  ],
  "bytecode": "0x6060604052341561000f57600080fd5b604051602080612fef8339810160405280805190602001909190505060008173ffffffffffffffffffffffffffffffffffffffff161415151561005157600080fd5b806000806101000a81548173ffffffffffffffffffffffffffffffffffffffff021916908373ffffffffffffffffffffffffffffffffffffffff16021790555050612f4e806100a16000396000f30060606040526004361061006c576000357c0100000000000000000000000000000000000000000000000000000000900463ffffffff168062b7520e1461007157806307e39579146100c65780636f032c52146101c15780637ee349e5146102ac5780639be9164214610397575b600080fd5b341561007c57600080fd5b6100846103e8565b604051808273ffffffffffffffffffffffffffffffffffffffff1673ffffffffffffffffffffffffffffffffffffffff16815260200191505060405180910390f35b34156100d157600080fd5b6101836004808060600190600380602002604051908101604052809291908260036020028082843782019150505050509190806101600190600b806020026040519081016040528092919082600b6020028082843782019150505050509190803590602001908201803590602001908080601f0160208091040260200160405190810160405280939291908181526020018383808284378201915050505050509190803590602001909190505061040d565b6040518082600660200280838360005b838110156101ae578082015181840152602081019050610193565b5050505090500191505060405180910390f35b61026a6004808060600190600380602002604051908101604052809291908260036020028082843782019150505050509190806101600190600b806020026040519081016040528092919082600b6020028082843782019150505050509190803590602001908201803590602001908080601f01602080910402602001604051908101604052809392919081815260200183838082843782019150505050505091905050610687565b604051808273ffffffffffffffffffffffffffffffffffffffff1673ffffffffffffffffffffffffffffffffffffffff16815260200191505060405180910390f35b6103556004808060600190600380602002604051908101604052809291908260036020028082843782019150505050509190806101600190600b806020026040519081016040528092919082600b6020028082843782019150505050509190803590602001908201803590602001908080601f01602080910402602001604051908101604052809392919081815260200183838082843782019150505050505091905050610a13565b604051808273ffffffffffffffffffffffffffffffffffffffff1673ffffffffffffffffffffffffffffffffffffffff16815260200191505060405180910390f35b34156103a257600080fd5b6103ce600480803573ffffffffffffffffffffffffffffffffffffffff16906020019091905050610dd2565b604051808215151515815260200191505060405180910390f35b6000809054906101000a900473ffffffffffffffffffffffffffffffffffffffff1681565b610415610e28565b73__RequestLib____________________________63dcd5ad916080604051908101604052803373ffffffffffffffffffffffffffffffffffffffff1673ffffffffffffffffffffffffffffffffffffffff16815260200188600060038110151561047c57fe5b602002015173ffffffffffffffffffffffffffffffffffffffff1673ffffffffffffffffffffffffffffffffffffffff1681526020018860016003811015156104c157fe5b602002015173ffffffffffffffffffffffffffffffffffffffff1673ffffffffffffffffffffffffffffffffffffffff16815260200188600260038110151561050657fe5b602002015173ffffffffffffffffffffffffffffffffffffffff1673ffffffffffffffffffffffffffffffffffffffff16815250868686600060405160c001526040518563ffffffff167c01000000000000000000000000000000000000000000000000000000000281526004018085600460200280838360005b8381101561059c578082015181840152602081019050610581565b5050505090500184600b60200280838360005b838110156105ca5780820151818401526020810190506105af565b5050505090500180602001838152602001828103825284818151815260200191508051906020019080838360005b838110156106135780820151818401526020810190506105f8565b50505050905090810190601f1680156106405780820380516001836020036101000a031916815260200191505b509550505050505060c06040518083038186803b151561065f57600080fd5b6102c65a03f4151561067057600080fd5b5050506040518060c0016040529050949350505050565b6000610691610e28565b61069d8585853461040d565b90508073__IterTools_____________________________635fa77dac90916000604051602001526040518263ffffffff167c01000000000000000000000000000000000000000000000000000000000281526004018082600660200280838360005b8381101561071b578082015181840152602081019050610700565b5050505090500191505060206040518083038186803b151561073c57600080fd5b6102c65a03f4151561074d57600080fd5b5050506040518051905015156109fd5780600060068110151561076c57fe5b602002015115156107c1577f077a9c333594b471fbfcd18e36bfb234269fe83c1cbb6a332f0b228258bcc02a600060058111156107a557fe5b604051808260ff1660ff16815260200191505060405180910390a15b8060016006811015156107d057fe5b60200201511515610825577f077a9c333594b471fbfcd18e36bfb234269fe83c1cbb6a332f0b228258bcc02a6001600581111561080957fe5b604051808260ff1660ff16815260200191505060405180910390a15b80600260068110151561083457fe5b60200201511515610889577f077a9c333594b471fbfcd18e36bfb234269fe83c1cbb6a332f0b228258bcc02a6002600581111561086d57fe5b604051808260ff1660ff16815260200191505060405180910390a15b80600360068110151561089857fe5b602002015115156108ed577f077a9c333594b471fbfcd18e36bfb234269fe83c1cbb6a332f0b228258bcc02a600360058111156108d157fe5b604051808260ff1660ff16815260200191505060405180910390a15b8060046006811015156108fc57fe5b60200201511515610951577f077a9c333594b471fbfcd18e36bfb234269fe83c1cbb6a332f0b228258bcc02a6004600581111561093557fe5b604051808260ff1660ff16815260200191505060405180910390a15b80600560068110151561096057fe5b602002015115156109b4577f077a9c333594b471fbfcd18e36bfb234269fe83c1cbb6a332f0b228258bcc02a60058081111561099857fe5b604051808260ff1660ff16815260200191505060405180910390a15b3373ffffffffffffffffffffffffffffffffffffffff166108fc349081150290604051600060405180830381858888f1935050505015156109f457600080fd5b60009150610a0b565b610a08858585610a13565b91505b509392505050565b600080346080604051908101604052803373ffffffffffffffffffffffffffffffffffffffff1673ffffffffffffffffffffffffffffffffffffffff168152602001876000600381101515610a6457fe5b602002015173ffffffffffffffffffffffffffffffffffffffff1673ffffffffffffffffffffffffffffffffffffffff168152602001876001600381101515610aa957fe5b602002015173ffffffffffffffffffffffffffffffffffffffff1673ffffffffffffffffffffffffffffffffffffffff168152602001876002600381101515610aee57fe5b602002015173ffffffffffffffffffffffffffffffffffffffff1673ffffffffffffffffffffffffffffffffffffffff168152508585610b2c610e52565b8084600460200280838360005b83811015610b54578082015181840152602081019050610b39565b5050505090500183600b60200280838360005b83811015610b82578082015181840152602081019050610b67565b5050505090500180602001828103825283818151815260200191508051906020019080838360005b83811015610bc5578082015181840152602081019050610baa565b50505050905090810190601f168015610bf25780820380516001836020036101000a031916815260200191505b509450505050506040518091039082f0801515610c0e57600080fd5b9050905060018060008373ffffffffffffffffffffffffffffffffffffffff1673ffffffffffffffffffffffffffffffffffffffff16815260200190815260200160002060006101000a81548160ff0219169083151502179055507f60dc38bed424a87163b4220b98edb283977533b0a85a5743f8d35c28fd495e4781604051808273ffffffffffffffffffffffffffffffffffffffff1673ffffffffffffffffffffffffffffffffffffffff16815260200191505060405180910390a16000809054906101000a900473ffffffffffffffffffffffffffffffffffffffff1673ffffffffffffffffffffffffffffffffffffffff166309d33f1d82866007600b81101515610d1957fe5b60200201516000604051602001526040518363ffffffff167c0100000000000000000000000000000000000000000000000000000000028152600401808373ffffffffffffffffffffffffffffffffffffffff1673ffffffffffffffffffffffffffffffffffffffff16815260200182815260200192505050602060405180830381600087803b1515610dab57600080fd5b6102c65a03f11515610dbc57600080fd5b5050506040518051905050809150509392505050565b6000600160008373ffffffffffffffffffffffffffffffffffffffff1673ffffffffffffffffffffffffffffffffffffffff16815260200190815260200160002060009054906101000a900460ff169050919050565b60c0604051908101604052806006905b60001515815260200190600190039081610e385790505090565b6040516120c080610e638339019056006060604052604051620020c0380380620020c0833981016040528090816080019081610160018051820191905050600073__RequestLib____________________________6329aa5c6590918585856000604051602001526040518563ffffffff167c01000000000000000000000000000000000000000000000000000000000281526004018085815260200184600460200280838360005b83811015620000b557808201518184015260208101905062000098565b5050505090500183600b60200280838360005b83811015620000e5578082015181840152602081019050620000c8565b5050505090500180602001828103825283818151815260200191508051906020019080838360005b838110156200012a5780820151818401526020810190506200010d565b50505050905090810190601f168015620001585780820380516001836020036101000a031916815260200191505b509550505050505060206040518083038186803b15156200017857600080fd5b6102c65a03f415156200018a57600080fd5b5050506040518051905050505050611f1880620001a86000396000f3006060604052600436106100a4576000357c0100000000000000000000000000000000000000000000000000000000900463ffffffff1680634e417a98146100a65780634e71d92d14610134578063606deecd1461015657806361461954146102345780636720ceb1146102615780636949a0581461028e5780638dd8596c146102bb578063b311ee0c146102e8578063be6d055a146102fd578063ea8a1af014610386575b005b34156100b157600080fd5b6100b96103b3565b6040518080602001828103825283818151815260200191508051906020019080838360005b838110156100f95780820151818401526020810190506100de565b50505050905090810190601f1680156101265780820380516001836020036101000a031916815260200191505b509250505060405180910390f35b61013c610460565b604051808215151515815260200191505060405180910390f35b341561016157600080fd5b610169610471565b6040518085600660200280838360005b83811015610194578082015181840152602081019050610179565b5050505090500184600360200280838360005b838110156101c25780820151818401526020810190506101a7565b5050505090500183600e60200280838360005b838110156101f05780820151818401526020810190506101d5565b5050505090500182600160200280838360005b8381101561021e578082015181840152602081019050610203565b5050505090500194505050505060405180910390f35b341561023f57600080fd5b610247610655565b604051808215151515815260200191505060405180910390f35b341561026c57600080fd5b610274610666565b604051808215151515815260200191505060405180910390f35b341561029957600080fd5b6102a16106fd565b604051808215151515815260200191505060405180910390f35b34156102c657600080fd5b6102ce610794565b604051808215151515815260200191505060405180910390f35b34156102f357600080fd5b6102fb61082b565b005b61036c600480803573ffffffffffffffffffffffffffffffffffffffff1690602001909190803590602001908201803590602001908080601f016020809104026020016040519081016040528093929190818152602001838380828437820191505050505050919050506108ae565b604051808215151515815260200191505060405180910390f35b341561039157600080fd5b6103996109bb565b604051808215151515815260200191505060405180910390f35b6103bb611e1c565b600080016001018054600181600116156101000203166002900480601f0160208091040260200160405190810160405280929190818152602001828054600181600116156101000203166002900480156104565780601f1061042b57610100808354040283529160200191610456565b820191906000526020600020905b81548152906001019060200180831161043957829003601f168201915b5050505050905090565b600061046c6000610a52565b905090565b610479611e30565b610481611e6e565b610489611e98565b610491611ec1565b61049b6000610abf565b1561064a5760006017016000016000601701600601600060170160070160006017016015018360068060200260405190810160405280929190826006801561052e576020028201915b8160009054906101000a900473ffffffffffffffffffffffffffffffffffffffff1673ffffffffffffffffffffffffffffffffffffffff16815260200190600101908083116104e4575b5050505050935082600380602002604051908101604052809291908260038015610592576020028201916000905b82829054906101000a900460ff1615158152602001906001019060208260000104928301926001038202915080841161055c5790505b5050505050925081600e806020026040519081016040528092919082600e80156105d1576020028201915b8154815260200190600101908083116105bd575b5050505050915080600180602002604051908101604052809291908260018015610636576020028201916000905b82829054906101000a900460ff1660ff16815260200190600101906020826000010492830192600103820291508084116105ff5790505b50505050509050935093509350935061064f565b600080fd5b90919293565b600061066160006110cb565b905090565b60008073__RequestLib____________________________633cf3789990916000604051602001526040518263ffffffff167c01000000000000000000000000000000000000000000000000000000000281526004018082815260200191505060206040518083038186803b15156106dd57600080fd5b6102c65a03f415156106ee57600080fd5b50505060405180519050905090565b60008073__RequestLib____________________________634074b91c90916000604051602001526040518263ffffffff167c01000000000000000000000000000000000000000000000000000000000281526004018082815260200191505060206040518083038186803b151561077457600080fd5b6102c65a03f4151561078557600080fd5b50505060405180519050905090565b60008073__RequestLib____________________________63c9b15e0590916000604051602001526040518263ffffffff167c01000000000000000000000000000000000000000000000000000000000281526004018082815260200191505060206040518083038186803b151561080b57600080fd5b6102c65a03f4151561081c57600080fd5b50505060405180519050905090565b600073__RequestLib____________________________637994549a90916040518263ffffffff167c01000000000000000000000000000000000000000000000000000000000281526004018082815260200191505060006040518083038186803b151561089857600080fd5b6102c65a03f415156108a957600080fd5b505050565b60003373ffffffffffffffffffffffffffffffffffffffff16600060050160000160009054906101000a900473ffffffffffffffffffffffffffffffffffffffff1673ffffffffffffffffffffffffffffffffffffffff1614801561091c575061091b60006011016116a9565b5b151561092757600080fd5b8273ffffffffffffffffffffffffffffffffffffffff16348360405180828051906020019080838360005b8381101561096d578082015181840152602081019050610952565b50505050905090810190601f16801561099a5780820380516001836020036101000a031916815260200191505b5091505060006040518083038185876187965a03f192505050905092915050565b60008073__RequestLib____________________________6332839d9890916000604051602001526040518263ffffffff167c01000000000000000000000000000000000000000000000000000000000281526004018082815260200191505060206040518083038186803b1515610a3257600080fd5b6102c65a03f41515610a4357600080fd5b50505060405180519050905090565b6000610a5d826116c5565b1515610a6857600080fd5b610a89610a778360110161173e565b83600d016117a590919063ffffffff16565b507fbcb472984264b16baa8cde752f2af002ea8ce06f35d81caee36625234edd2a4660405160405180910390a160019050919050565b600081600d0160000160009054906101000a900473ffffffffffffffffffffffffffffffffffffffff16826017016000016000600681101515610afe57fe5b0160006101000a81548173ffffffffffffffffffffffffffffffffffffffff021916908373ffffffffffffffffffffffffffffffffffffffff1602179055508160050160010160009054906101000a900473ffffffffffffffffffffffffffffffffffffffff16826017016000016001600681101515610b7a57fe5b0160006101000a81548173ffffffffffffffffffffffffffffffffffffffff021916908373ffffffffffffffffffffffffffffffffffffffff1602179055508160050160000160009054906101000a900473ffffffffffffffffffffffffffffffffffffffff16826017016000016002600681101515610bf657fe5b0160006101000a81548173ffffffffffffffffffffffffffffffffffffffff021916908373ffffffffffffffffffffffffffffffffffffffff1602179055508160070160040160009054906101000a900473ffffffffffffffffffffffffffffffffffffffff16826017016000016003600681101515610c7257fe5b0160006101000a81548173ffffffffffffffffffffffffffffffffffffffff021916908373ffffffffffffffffffffffffffffffffffffffff1602179055508160070160010160009054906101000a900473ffffffffffffffffffffffffffffffffffffffff16826017016000016004600681101515610cee57fe5b0160006101000a81548173ffffffffffffffffffffffffffffffffffffffff021916908373ffffffffffffffffffffffffffffffffffffffff1602179055508160000160000160009054906101000a900473ffffffffffffffffffffffffffffffffffffffff16826017016000016005600681101515610d6a57fe5b0160006101000a81548173ffffffffffffffffffffffffffffffffffffffff021916908373ffffffffffffffffffffffffffffffffffffffff1602179055508160050160010160149054906101000a900460ff16826017016006016000600381101515610dd357fe5b602091828204019190066101000a81548160ff0219169083151502179055508160050160010160159054906101000a900460ff16826017016006016001600381101515610e1c57fe5b602091828204019190066101000a81548160ff0219169083151502179055508160050160010160169054906101000a900460ff16826017016006016002600381101515610e6557fe5b602091828204019190066101000a81548160ff02191690831515021790555081600d0160010154826017016007016000600e81101515610ea157fe5b01819055508160070160030154826017016007016001600e81101515610ec357fe5b01819055508160070160050154826017016007016002600e81101515610ee557fe5b01819055508160070160000154826017016007016003600e81101515610f0757fe5b01819055508160070160020154826017016007016004600e81101515610f2957fe5b01819055508160110160050154826017016007016005600e81101515610f4b57fe5b01819055508160110160030154826017016007016006600e81101515610f6d57fe5b01819055508160110160040154826017016007016007600e81101515610f8f57fe5b01819055508160110160000160009054906101000a900460ff166002811115610fb457fe5b826017016007016008600e81101515610fc957fe5b01819055508160110160020154826017016007016009600e81101515610feb57fe5b0181905550816011016001015482601701600701600a600e8110151561100d57fe5b0181905550816000016003015482601701600701600b600e8110151561102f57fe5b0181905550816000016002015482601701600701600c600e8110151561105157fe5b0181905550816000016004015482601701600701600d600e8110151561107357fe5b018190555081600d0160030160009054906101000a900460ff168260170160150160006001811015156110a257fe5b602091828204019190066101000a81548160ff021916908360ff16021790555060019050919050565b6000806000805a92506110f16161a86110e387611816565b61183c90919063ffffffff16565b5a101561114a577fc008bc849b42227c61d5063a1313ce509a6e99211bfd59e827e417be6c65c81b6005600681111561112657fe5b604051808260ff1660ff16815260200191505060405180910390a1600093506116a1565b8460050160010160159054906101000a900460ff16156111b6577fc008bc849b42227c61d5063a1313ce509a6e99211bfd59e827e417be6c65c81b6001600681111561119257fe5b604051808260ff1660ff16815260200191505060405180910390a1600093506116a1565b8460050160010160149054906101000a900460ff1615611222577fc008bc849b42227c61d5063a1313ce509a6e99211bfd59e827e417be6c65c81b600060068111156111fe57fe5b604051808260ff1660ff16815260200191505060405180910390a1600093506116a1565b61122e85601101611858565b15611285577fc008bc849b42227c61d5063a1313ce509a6e99211bfd59e827e417be6c65c81b6002600681111561126157fe5b604051808260ff1660ff16815260200191505060405180910390a1600093506116a1565b611291856011016116a9565b156112e8577fc008bc849b42227c61d5063a1313ce509a6e99211bfd59e827e417be6c65c81b600360068111156112c457fe5b604051808260ff1660ff16815260200191505060405180910390a1600093506116a1565b6112f485600d01611870565b8015611353575084600d0160000160009054906101000a900473ffffffffffffffffffffffffffffffffffffffff1673ffffffffffffffffffffffffffffffffffffffff163373ffffffffffffffffffffffffffffffffffffffff1614155b80156113675750611366856011016118b7565b5b156113be577fc008bc849b42227c61d5063a1313ce509a6e99211bfd59e827e417be6c65c81b6004600681111561139a57fe5b604051808260ff1660ff16815260200191505060405180910390a1600093506116a1565b3a856000016004015414151561141f577fc008bc849b42227c61d5063a1313ce509a6e99211bfd59e827e417be6c65c81b6006808111156113fb57fe5b604051808260ff1660ff16815260200191505060405180910390a1600093506116a1565b60018560050160010160156101000a81548160ff02191690831515021790555061144b856000016118eb565b8560050160010160166101000a81548160ff021916908315150217905550611475856007016119ba565b156114ab5761149f856007016005015461149187600701611a01565b611a0f90919063ffffffff16565b85600701600501819055505b846007016005015491506114c185600701611a30565b50338560070160010160006101000a81548173ffffffffffffffffffffffffffffffffffffffff021916908373ffffffffffffffffffffffffffffffffffffffff16021790555061151485600d01611870565b156115a55761153a856007016002015486600d0160010154611a0f90919063ffffffff16565b8560070160020181905550600085600d0160010181905550611595856007016002015461158787600d0160030160009054906101000a900460ff1688600701611ab890919063ffffffff16565b611a0f90919063ffffffff16565b85600701600201819055506115d6565b6115ca85600701600201546115bc87600701611af3565b611a0f90919063ffffffff16565b85600701600201819055505b6115fe62015f906115f05a8661183c90919063ffffffff16565b611a0f90919063ffffffff16565b905061162c856007016002015461161e3a84611b0190919063ffffffff16565b611a0f90919063ffffffff16565b85600701600201819055507f3e504bb8b225ad41f613b0c3c4205cdd752d1615b4d77cd1773417282fcfb5d98560070160020154838360405180848152602001838152602001828152602001935050505060405180910390a161169185600701611b37565b5061169b85611bbf565b50600193505b505050919050565b60006116b482611c8b565b6116bd83611caf565b119050919050565b60006116d382600d01611870565b1515156116df57600080fd5b8160050160010160149054906101000a900460ff1615151561170057600080fd5b61170c82601101611cd2565b151561171757600080fd5b6117278260070160000154611d1b565b341015151561173557600080fd5b60019050919050565b60008061178d836005015461177f606461177161175a88611d38565b61176389611caf565b61183c90919063ffffffff16565b611b0190919063ffffffff16565b611d6090919063ffffffff16565b90506064811115151561179c57fe5b80915050919050565b6000338360000160006101000a81548173ffffffffffffffffffffffffffffffffffffffff021916908373ffffffffffffffffffffffffffffffffffffffff160217905550348360010181905550818360030160006101000a81548160ff021916908360ff16021790555092915050565b60006118356202bf208360000160030154611a0f90919063ffffffff16565b9050919050565b600082821115151561184d57600080fd5b818303905092915050565b6000816001015461186883611caf565b109050919050565b6000808260000160009054906101000a900473ffffffffffffffffffffffffffffffffffffffff1673ffffffffffffffffffffffffffffffffffffffff1614159050919050565b60006118c282611caf565b8260010154111580156118e457506118d982611d7b565b6118e283611caf565b105b9050919050565b60008160000160009054906101000a900473ffffffffffffffffffffffffffffffffffffffff1673ffffffffffffffffffffffffffffffffffffffff16826002015483600301549084600101604051808280546001816001161561010002031660029004801561199c5780601f106119715761010080835404028352916020019161199c565b820191906000526020600020905b81548152906001019060200180831161197f57829003601f168201915b5050915050600060405180830381858888f193505050509050919050565b6000808260040160009054906101000a900473ffffffffffffffffffffffffffffffffffffffff1673ffffffffffffffffffffffffffffffffffffffff1614159050919050565b600081600301549050919050565b6000808284019050838110151515611a2657600080fd5b8091505092915050565b600080826005015490506000811115611aad57600083600501819055508260040160009054906101000a900473ffffffffffffffffffffffffffffffffffffffff1673ffffffffffffffffffffffffffffffffffffffff166108fc829081150290604051600060405180830381858888f193505050509150611ab2565b600191505b50919050565b6000611aeb6064611add8460ff16611acf87611af3565b611b0190919063ffffffff16565b611d6090919063ffffffff16565b905092915050565b600081600001549050919050565b60008082840290506000841480611b225750828482811515611b1f57fe5b04145b1515611b2d57600080fd5b8091505092915050565b600080826002015490506000811115611bb457600083600201819055508260010160009054906101000a900473ffffffffffffffffffffffffffffffffffffffff1673ffffffffffffffffffffffffffffffffffffffff166108fc829081150290604051600060405180830381858888f193505050509150611bb9565b600191505b50919050565b600080611c258360070160050154611c178560070160020154611c0987600d01600101543073ffffffffffffffffffffffffffffffffffffffff163161183c90919063ffffffff16565b61183c90919063ffffffff16565b61183c90919063ffffffff16565b90508260050160000160009054906101000a900473ffffffffffffffffffffffffffffffffffffffff1673ffffffffffffffffffffffffffffffffffffffff166108fc829081150290604051600060405180830381858888f19350505050915050919050565b6000611ca882600201548360010154611a0f90919063ffffffff16565b9050919050565b6000611ccb8260000160009054906101000a900460ff16611d9f565b9050919050565b6000611cdd82611caf565b611ce683611d38565b11158015611d035750611cf882611df8565b611d0183611caf565b105b15611d115760019050611d16565b600090505b919050565b6000611d31600283611b0190919063ffffffff16565b9050919050565b6000611d598260050154611d4b84611df8565b61183c90919063ffffffff16565b9050919050565b6000808284811515611d6e57fe5b0490508091505092915050565b6000611d9882600401548360010154611a0f90919063ffffffff16565b9050919050565b6000600280811115611dad57fe5b826002811115611db957fe5b1415611dc757429050611df3565b60016002811115611dd457fe5b826002811115611de057fe5b1415611dee57439050611df3565b600080fd5b919050565b6000611e158260030154836001015461183c90919063ffffffff16565b9050919050565b602060405190810160405280600081525090565b60c0604051908101604052806006905b600073ffffffffffffffffffffffffffffffffffffffff16815260200190600190039081611e405790505090565b6060604051908101604052806003905b60001515815260200190600190039081611e7e5790505090565b6101c060405190810160405280600e905b6000815260200190600190039081611ea95790505090565b6020604051908101604052806001905b600060ff16815260200190600190039081611ed157905050905600a165627a7a72305820373a0ac42412b2b6e043f8fc70778eae2079c8ad9024adee718e935e1907967a0029a165627a7a723058209fa7f12a137c359111e066492189a7342c56b4f58623e2ce738c5a78a7bbe6490029",
  "source": "pragma solidity ^0.4.18;\n\nimport \"contracts/Interface/RequestFactoryInterface.sol\";\nimport \"contracts/Interface/RequestTrackerInterface.sol\";\nimport \"contracts/TransactionRequest.sol\";\nimport \"contracts/Library/RequestLib.sol\";\nimport \"contracts/IterTools.sol\";\n\n/**\n * @title RequestFactory\n * @dev Contract which will produce new TransactionRequests.\n */\ncontract RequestFactory is RequestFactoryInterface {\n    using IterTools for bool[6];\n\n    // RequestTracker of this contract.\n    RequestTrackerInterface public requestTracker;\n\n    function RequestFactory(address _trackerAddress) {\n        require( _trackerAddress != 0x0 );\n\n        requestTracker = RequestTrackerInterface(_trackerAddress);\n    }\n\n    /**\n     * @dev The lowest level interface for creating a transaction request.\n     * \n     * @param _addressArgs [0] -  meta.owner\n     * @param _addressArgs [1] -  paymentData.donationBenefactor\n     * @param _addressArgs [2] -  txnData.toAddress\n     * @param _uintArgs [0]    -  paymentData.donation\n     * @param _uintArgs [1]    -  paymentData.payment\n     * @param _uintArgs [2]    -  schedule.claimWindowSize\n     * @param _uintArgs [3]    -  schedule.freezePeriod\n     * @param _uintArgs [4]    -  schedule.reservedWindowSize\n     * @param _uintArgs [5]    -  schedule.temporalUnit\n     * @param _uintArgs [6]    -  schedule.windowSize\n     * @param _uintArgs [7]    -  schedule.windowStart\n     * @param _uintArgs [8]    -  txnData.callGas\n     * @param _uintArgs [9]    -  txnData.callValue\n     * @param _uintArgs [10]   -  txnData.gasPrice\n     * @param _callData        -  The call data\n     */\n    function createRequest(\n        address[3]  _addressArgs,\n        uint[11]    _uintArgs,\n        bytes       _callData\n    )\n        public payable returns (address)\n    {\n        TransactionRequest request = (new TransactionRequest).value(msg.value)(\n            [\n                msg.sender,       // Created by\n                _addressArgs[0],  // meta.owner\n                _addressArgs[1],  // paymentData.donationBenefactor\n                _addressArgs[2]   // txnData.toAddress\n            ],\n            _uintArgs,            //uint[11]\n            _callData\n        );\n\n        // Track the address locally\n        requests[address(request)] = true;\n\n        // Log the creation.\n        RequestCreated(address(request));\n\n        // Add the request to the RequestTracker\n        requestTracker.addRequest(address(request), _uintArgs[7]); // windowStart\n\n        return address(request);\n    }\n\n    /**\n     *  The same as createRequest except that it requires validation prior to\n     *  creation.\n     *\n     *  Parameters are the same as `createRequest`\n     */\n    function createValidatedRequest(\n        address[3]  _addressArgs,\n        uint[11]    _uintArgs,\n        bytes       _callData\n    ) \n        public payable returns (address)\n    {\n        bool[6] memory isValid = validateRequestParams(\n            _addressArgs,\n            _uintArgs,\n            _callData,\n            msg.value\n        );\n\n        if (!isValid.all()) {\n            if (!isValid[0]) {\n                ValidationError(uint8(Errors.InsufficientEndowment));\n            }\n            if (!isValid[1]) {\n                ValidationError(uint8(Errors.ReservedWindowBiggerThanExecutionWindow));\n            }\n            if (!isValid[2]) {\n                ValidationError(uint8(Errors.InvalidTemporalUnit));\n            }\n            if (!isValid[3]) {\n                ValidationError(uint8(Errors.ExecutionWindowTooSoon));\n            }\n            if (!isValid[4]) {\n                ValidationError(uint8(Errors.CallGasTooHigh));\n            }\n            if (!isValid[5]) {\n                ValidationError(uint8(Errors.EmptyToAddress));\n            }\n\n            // Try to return the ether sent with the message.  If this failed\n            // then revert() to force it to be returned\n            if (!msg.sender.send(msg.value)) {\n                revert();\n            }\n            return 0x0;\n        }\n\n        return createRequest(_addressArgs, _uintArgs, _callData);\n    }\n\n    /// ----------------------------\n    /// Internal\n    /// ----------------------------\n\n    /*\n     *  @dev The enum for launching `ValidationError` events and mapping them to an error.\n     */\n    enum Errors {\n        InsufficientEndowment,\n        ReservedWindowBiggerThanExecutionWindow,\n        InvalidTemporalUnit,\n        ExecutionWindowTooSoon,\n        CallGasTooHigh,\n        EmptyToAddress\n    }\n\n    event ValidationError(uint8 error);\n\n    /*\n     * @dev Validate the constructor arguments for either `createRequest` or `createValidatedRequest`.\n     */\n    function validateRequestParams(\n        address[3]  _addressArgs,\n        uint[11]    _uintArgs,\n        bytes       _callData,\n        uint        _endowment\n    )\n        public returns (bool[6])\n    {\n        return RequestLib.validate(\n            [\n                msg.sender,      // meta.createdBy\n                _addressArgs[0],  // meta.owner\n                _addressArgs[1],  // paymentData.donationBenefactor\n                _addressArgs[2]   // txnData.toAddress\n            ],\n            _uintArgs,\n            _callData,\n            _endowment\n        );\n    }\n\n    /// Mapping to hold known requests.\n    mapping (address => bool) requests;\n\n    function isKnownRequest(address _address) \n        public view returns (bool isKnown)\n    {\n        isKnown = requests[_address];\n    }\n}",
  "sourcePath": "/home/logan/Work/ethereum-alarm-clock/contracts/RequestFactory.sol",
  "compiler": {
    "name": "solc",
    "version": "0.4.18+commit.9cf6e910.Emscripten.clang"
  },
  "schemaVersion": "1.0.1",
  "updatedAt": "2017-12-30T17:51:08.063Z"
}