{
  "contractName": "SchedulerLib",
  "abi": [
    {
      "constant": false,
      "inputs": [
        {
          "name": "self",
          "type": "SchedulerLib.FutureTransaction storage"
        }
      ],
      "name": "resetAsBlock",
      "outputs": [
        {
          "name": "complete",
          "type": "bool"
        }
      ],
      "payable": false,
      "stateMutability": "nonpayable",
      "type": "function"
    },
    {
      "constant": false,
      "inputs": [
        {
          "name": "self",
          "type": "SchedulerLib.FutureTransaction storage"
        }
      ],
      "name": "resetCommon",
      "outputs": [
        {
          "name": "complete",
          "type": "bool"
        }
      ],
      "payable": false,
      "stateMutability": "nonpayable",
      "type": "function"
    },
    {
      "constant": false,
      "inputs": [
        {
          "name": "self",
          "type": "SchedulerLib.FutureTransaction storage"
        }
      ],
      "name": "resetAsTimestamp",
      "outputs": [
        {
          "name": "complete",
          "type": "bool"
        }
      ],
      "payable": false,
      "stateMutability": "nonpayable",
      "type": "function"
    }
  ],
  "bytecode": "0x6060604052341561000f57600080fd5b6104e58061001e6000396000f300606060405260043610610057576000357c0100000000000000000000000000000000000000000000000000000000900463ffffffff16806314c84e5d1461005c578063945a39b01461008c578063e9d24377146100bc575b600080fd5b61007260048080359060200190919050506100ec565b604051808215151515815260200191505060405180910390f35b6100a2600480803590602001909190505061018c565b604051808215151515815260200191505060405180910390f35b6100d2600480803590602001909190505061031b565b604051808215151515815260200191505060405180910390f35b60006100f78261018c565b151561010257600080fd5b60ff826004015414151561011b5760ff82600401819055505b600a4301826005015414151561013857600a430182600501819055505b6010826009015414151561015157601082600901819055505b600a82600a015414151561016a57600a82600a01819055505b60ff82600b01541415156101835760ff82600b01819055505b60019050919050565b60008060006101a7620f42403a6103c390919063ffffffff16565b91508184600801541415156101c0578184600801819055505b6101d8606485600801546103f990919063ffffffff16565b90508084600701541415156101f1578084600701819055505b3373ffffffffffffffffffffffffffffffffffffffff168460000160009054906101000a900473ffffffffffffffffffffffffffffffffffffffff1673ffffffffffffffffffffffffffffffffffffffff1614151561028e57338460000160006101000a81548173ffffffffffffffffffffffffffffffffffffffff021916908373ffffffffffffffffffffffffffffffffffffffff1602179055505b62015f9084600201541415156102ab5762015f9084600201819055505b6000846001018054600181600116156101000203166002900490501415156102f75760206040519081016040528060008152508460010190805190602001906102f5929190610414565b505b6064846006015414151561031057606484600601819055505b600192505050919050565b60006103268261018c565b151561033157600080fd5b610e10826004015414151561034c57610e1082600401819055505b61012c4201826005015414151561036b5761012c420182600501819055505b61012c82600901541415156103865761012c82600901819055505b60b482600a015414151561039f5760b482600a01819055505b610e1082600b01541415156103ba57610e1082600b01819055505b60019050919050565b600080828402905060008414806103e457508284828115156103e157fe5b04145b15156103ef57600080fd5b8091505092915050565b600080828481151561040757fe5b0490508091505092915050565b828054600181600116156101000203166002900490600052602060002090601f016020900481019282601f1061045557805160ff1916838001178555610483565b82800160010185558215610483579182015b82811115610482578251825591602001919060010190610467565b5b5090506104909190610494565b5090565b6104b691905b808211156104b257600081600090555060010161049a565b5090565b905600a165627a7a72305820de6a18fe492914355884d8548685e9e24111d4891bd53e321e5337bbad8366170029",
  "source": "pragma solidity ^0.4.18;\n\nimport \"contracts/Interface/RequestFactoryInterface.sol\";\n\nimport \"contracts/Library/PaymentLib.sol\";\nimport \"contracts/Library/RequestLib.sol\";\nimport \"contracts/Library/RequestScheduleLib.sol\";\n\nimport \"contracts/Library/MathLib.sol\";\nimport \"contracts/zeppelin/SafeMath.sol\";\n\nlibrary SchedulerLib {\n    using SafeMath for uint;\n\n    address constant DONATION_BENEFACTOR = 0xecc9c5fff8937578141592e7E62C2D2E364311b8;\n\n    struct FutureTransaction {\n        address toAddress;          // Destination of the transaction.\n        bytes callData;           // Bytecode to be included with the transaction.\n        \n        uint callGas;               // Amount of gas to be used with the transaction.\n        uint callValue;             // Amount of ether to send with the transaction.\n\n        uint windowSize;            // The size of the execution window.\n        uint windowStart;           // Block or timestamp for when the window starts.\n\n        uint gasPrice;              // The gasPrice to be sent with the transaction.\n        \n        uint donation;              // Donation value attached to the transaction.\n        uint payment;               // Payment value attached to the transaction.\n\n        uint reservedWindowSize;    // The size of the window in which claimer has exclusive rights to execute.\n        uint freezePeriod;          // The size of the window in which nothing happens... Is before execution\n        uint claimWindowSize;       // The size of the window in which someone can claim the txRequest\n\n        RequestScheduleLib.TemporalUnit temporalUnit;\n    }\n\n    /*\n     * @dev Set common default values.\n     */\n    function resetCommon(FutureTransaction storage self) \n        public returns (bool complete)\n    {\n        uint defaultPayment = tx.gasprice.mul(1000000);\n        if (self.payment != defaultPayment) {\n            self.payment = defaultPayment;\n        }\n\n        uint defaultDonation = self.payment.div(100);\n        if (self.donation != defaultDonation ) {\n            self.donation = defaultDonation;\n        }\n\n        if (self.toAddress != msg.sender) {\n            self.toAddress = msg.sender;\n        }\n        if (self.callGas != 90000) {\n            self.callGas = 90000;\n        }\n        if (self.callData.length != 0) {\n            self.callData = \"\";\n        }\n        if (self.gasPrice != 100) {\n            self.gasPrice = 100;\n        }\n\n        complete = true;\n    }\n\n    /*\n     * @dev Set default values for block based scheduling.\n     */\n    function resetAsBlock(FutureTransaction storage self)\n        public returns (bool complete)\n    {\n        require(resetCommon(self));\n\n        if (self.windowSize != 255) {\n            self.windowSize = 255;\n        }\n        if (self.windowStart != block.number + 10) {\n            self.windowStart = block.number + 10;\n        }\n        if (self.reservedWindowSize != 16) {\n            self.reservedWindowSize = 16;\n        }\n        if (self.freezePeriod != 10) {\n            self.freezePeriod = 10;\n        }\n        if (self.claimWindowSize != 255) {\n            self.claimWindowSize = 255;\n        }\n\n        complete = true;\n    }\n\n    /*\n     * Set default values for timestamp based scheduling.\n     */\n    function resetAsTimestamp(FutureTransaction storage self)\n        public returns (bool complete)\n    {\n        require(resetCommon(self));\n\n        if (self.windowSize != 60 minutes) {\n            self.windowSize = 60 minutes;\n        }\n        if (self.windowStart != now + 5 minutes) {\n            self.windowStart = now + 5 minutes;\n        }\n        if (self.reservedWindowSize != 5 minutes) {\n            self.reservedWindowSize = 5 minutes;\n        }\n        if (self.freezePeriod != 3 minutes) {\n            self.freezePeriod = 3 minutes;\n        }\n        if (self.claimWindowSize != 60 minutes) {\n            self.claimWindowSize = 60 minutes;\n        }\n\n        complete = true;\n    }\n\n    /**\n     * @dev The lower level interface for creating a transaction request.\n     * @param self The FutureTransaction object created in schedule transaction calls.\n     * @param _factoryAddress The address of the RequestFactory which creates TransactionRequests.\n     * @return The address of a new TransactionRequest.\n     */\n    function schedule(\n        FutureTransaction storage self,\n        address _factoryAddress\n    ) \n        internal returns (address newRequestAddress) \n    {\n        RequestFactoryInterface factory = RequestFactoryInterface(_factoryAddress);\n\n        uint endowment = MathLib.min(\n            PaymentLib.computeEndowment(\n                self.payment,\n                self.donation,\n                self.callGas,\n                self.callValue,\n                self.gasPrice,\n                RequestLib.EXECUTION_GAS_OVERHEAD() //180000, line 459 RequestLib\n        ), this.balance);\n\n        newRequestAddress = factory.createValidatedRequest.value(endowment)(\n            [\n                msg.sender,              // meta.owner\n                DONATION_BENEFACTOR,     // paymentData.donationBenefactor\n                self.toAddress           // txnData.toAddress\n            ],\n            [\n                self.donation,            // paymentData.donation\n                self.payment,             // paymentData.payment\n                self.claimWindowSize,     // scheduler.claimWindowSize\n                self.freezePeriod,        // scheduler.freezePeriod\n                self.reservedWindowSize,  // scheduler.reservedWindowSize\n                uint(self.temporalUnit),  // scheduler.temporalUnit (1: block, 2: timestamp)\n                self.windowSize,          // scheduler.windowSize\n                self.windowStart,         // scheduler.windowStart\n                self.callGas,             // txnData.callGas\n                self.callValue,           // txnData.callValue\n                self.gasPrice             // txnData.gasPrice\n            ],\n            self.callData\n        );\n        \n        /// This check is redundant. see line 55 in BaseScheduler.sol\n        require(newRequestAddress != 0x0);\n        /// Automatically returns newRequestAddress\n    }\n\n}\n",
  "sourcePath": "contracts/Library/SchedulerLib.sol",
  "compiler": {
    "name": "solc",
    "version": "0.4.18+commit.9cf6e910.Emscripten.clang"
  },
  "schemaVersion": "1.0.1",
  "updatedAt": "2017-12-30T17:51:08.102Z"
}