{
  "contractName": "TimestampScheduler",
  "abi": [
    {
      "constant": false,
      "inputs": [
        {
          "name": "_toAddress",
          "type": "address"
        },
        {
          "name": "_callData",
          "type": "bytes"
        },
        {
          "name": "_uintArgs",
          "type": "uint256[8]"
        }
      ],
      "name": "schedule",
      "outputs": [
        {
          "name": "newRequest",
          "type": "address"
        }
      ],
      "payable": true,
      "stateMutability": "payable",
      "type": "function"
    },
    {
      "constant": true,
      "inputs": [],
      "name": "temporalUnit",
      "outputs": [
        {
          "name": "",
          "type": "uint8"
        }
      ],
      "payable": false,
      "stateMutability": "view",
      "type": "function"
    },
    {
      "constant": true,
      "inputs": [],
      "name": "factoryAddress",
      "outputs": [
        {
          "name": "",
          "type": "address"
        }
      ],
      "payable": false,
      "stateMutability": "view",
      "type": "function"
    },
    {
      "constant": true,
      "inputs": [],
      "name": "futureTransaction",
      "outputs": [
        {
          "name": "toAddress",
          "type": "address"
        },
        {
          "name": "callData",
          "type": "bytes"
        },
        {
          "name": "callGas",
          "type": "uint256"
        },
        {
          "name": "callValue",
          "type": "uint256"
        },
        {
          "name": "windowSize",
          "type": "uint256"
        },
        {
          "name": "windowStart",
          "type": "uint256"
        },
        {
          "name": "gasPrice",
          "type": "uint256"
        },
        {
          "name": "donation",
          "type": "uint256"
        },
        {
          "name": "payment",
          "type": "uint256"
        },
        {
          "name": "requiredDeposit",
          "type": "uint256"
        },
        {
          "name": "reservedWindowSize",
          "type": "uint256"
        },
        {
          "name": "freezePeriod",
          "type": "uint256"
        },
        {
          "name": "claimWindowSize",
          "type": "uint256"
        },
        {
          "name": "temporalUnit",
          "type": "uint8"
        }
      ],
      "payable": false,
      "stateMutability": "view",
      "type": "function"
    },
    {
      "inputs": [
        {
          "name": "_factoryAddress",
          "type": "address"
        }
      ],
      "payable": false,
      "stateMutability": "nonpayable",
      "type": "constructor"
    },
    {
      "payable": true,
      "stateMutability": "payable",
      "type": "fallback"
    },
    {
      "anonymous": false,
      "inputs": [
        {
          "indexed": false,
          "name": "request",
          "type": "address"
        }
      ],
      "name": "NewRequest",
      "type": "event"
    }
  ],
  "bytecode": "0x6060604052341561000f57600080fd5b604051602080610e888339810160405280805190602001909190505060028081111561003757fe5b600060146101000a81548160ff0219169083600281111561005457fe5b0217905550806000806101000a81548173ffffffffffffffffffffffffffffffffffffffff021916908373ffffffffffffffffffffffffffffffffffffffff16021790555050610ddf806100a96000396000f300606060405260043610610062576000357c0100000000000000000000000000000000000000000000000000000000900463ffffffff1680630801b654146100645780633c8a072e14610142578063966dae0e14610179578063e666bbcb146101ce575b005b610100600480803573ffffffffffffffffffffffffffffffffffffffff1690602001909190803590602001908201803590602001908080601f0160208091040260200160405190810160405280939291908181526020018383808284378201915050505050509190806101000190600880602002604051908101604052809291908260086020028082843782019150505050509190505061030e565b604051808273ffffffffffffffffffffffffffffffffffffffff1673ffffffffffffffffffffffffffffffffffffffff16815260200191505060405180910390f35b341561014d57600080fd5b6101556106e0565b6040518082600281111561016557fe5b60ff16815260200191505060405180910390f35b341561018457600080fd5b61018c6106f3565b604051808273ffffffffffffffffffffffffffffffffffffffff1673ffffffffffffffffffffffffffffffffffffffff16815260200191505060405180910390f35b34156101d957600080fd5b6101e1610718565b604051808f73ffffffffffffffffffffffffffffffffffffffff1673ffffffffffffffffffffffffffffffffffffffff168152602001806020018e81526020018d81526020018c81526020018b81526020018a815260200189815260200188815260200187815260200186815260200185815260200184815260200183600281111561026957fe5b60ff16815260200182810382528f8181546001816001161561010002031660029004815260200191508054600181600116156101000203166002900480156102f25780601f106102c7576101008083540402835291602001916102f2565b820191906000526020600020905b8154815290600101906020018083116102d557829003601f168201915b50509f5050505050505050505050505050505060405180910390f35b60006001600281111561031d57fe5b600060149054906101000a900460ff16600281111561033857fe5b14156103d557600173__SchedulerLib__________________________6314c84e5d90916000604051602001526040518263ffffffff167c01000000000000000000000000000000000000000000000000000000000281526004018082815260200191505060206040518083038186803b15156103b457600080fd5b6102c65a03f415156103c557600080fd5b505050604051805190505061049f565b6002808111156103e157fe5b600060149054906101000a900460ff1660028111156103fc57fe5b141561049957600173__SchedulerLib__________________________63e9d2437790916000604051602001526040518263ffffffff167c01000000000000000000000000000000000000000000000000000000000281526004018082815260200191505060206040518083038186803b151561047857600080fd5b6102c65a03f4151561048957600080fd5b505050604051805190505061049e565b600080fd5b5b83600160000160006101000a81548173ffffffffffffffffffffffffffffffffffffffff021916908373ffffffffffffffffffffffffffffffffffffffff160217905550826001800190805190602001906104fb929190610d0e565b5081600060088110151561050b57fe5b602002015160016002018190555081600160088110151561052857fe5b602002015160016003018190555081600260088110151561054557fe5b602002015160016004018190555081600360088110151561056257fe5b602002015160016005018190555081600460088110151561057f57fe5b602002015160016006018190555081600560088110151561059c57fe5b60200201516001600701819055508160066008811015156105b957fe5b60200201516001600801819055508160076008811015156105d657fe5b6020020151600160090181905550600060149054906101000a900460ff166001600d0160006101000a81548160ff0219169083600281111561061457fe5b021790555061064e6000809054906101000a900473ffffffffffffffffffffffffffffffffffffffff16600161079e90919063ffffffff16565b905060008173ffffffffffffffffffffffffffffffffffffffff161415151561067657600080fd5b7f2749295aa7ffdbd4d16719dc03d592cd081eebd9bb790ceedce201a40675fc0381604051808273ffffffffffffffffffffffffffffffffffffffff1673ffffffffffffffffffffffffffffffffffffffff16815260200191505060405180910390a19392505050565b600060149054906101000a900460ff1681565b6000809054906101000a900473ffffffffffffffffffffffffffffffffffffffff1681565b60018060000160009054906101000a900473ffffffffffffffffffffffffffffffffffffffff1690806001019080600201549080600301549080600401549080600501549080600601549080600701549080600801549080600901549080600a01549080600b01549080600c01549080600d0160009054906101000a900460ff1690508e565b600080600083915073__MathLib_______________________________637ae2b5c76108648760080154886007015489600201548a600301548b6006015473__RequestLib____________________________6345104b166000604051602001526040518163ffffffff167c010000000000000000000000000000000000000000000000000000000002815260040160206040518083038186803b151561084457600080fd5b6102c65a03f4151561085557600080fd5b50505060405180519050610c11565b3073ffffffffffffffffffffffffffffffffffffffff16316000604051602001526040518363ffffffff167c0100000000000000000000000000000000000000000000000000000000028152600401808381526020018281526020019250505060206040518083038186803b15156108db57600080fd5b6102c65a03f415156108ec57600080fd5b5050506040518051905090508173ffffffffffffffffffffffffffffffffffffffff1663d7ceab4c826060604051908101604052803373ffffffffffffffffffffffffffffffffffffffff1673ffffffffffffffffffffffffffffffffffffffff16815260200173ecc9c5fff8937578141592e7e62c2d2e364311b873ffffffffffffffffffffffffffffffffffffffff1673ffffffffffffffffffffffffffffffffffffffff1681526020018960000160009054906101000a900473ffffffffffffffffffffffffffffffffffffffff1673ffffffffffffffffffffffffffffffffffffffff1673ffffffffffffffffffffffffffffffffffffffff16815250610180604051908101604052808a6007015481526020018a6008015481526020018a600c015481526020018a600b015481526020018a600a015481526020018a600d0160009054906101000a900460ff166002811115610a4957fe5b81526020018a6004015481526020018a6005015481526020018a6002015481526020018a6003015481526020018a6006015481526020018a60090154815250896001016000604051602001526040518563ffffffff167c01000000000000000000000000000000000000000000000000000000000281526004018084600360200280838360005b83811015610aeb578082015181840152602081019050610ad0565b5050505090500183600c60200280838360005b83811015610b19578082015181840152602081019050610afe565b5050505090500180602001828103825283818154600181600116156101000203166002900481526020019150805460018160011615610100020316600290048015610ba55780601f10610b7a57610100808354040283529160200191610ba5565b820191906000526020600020905b815481529060010190602001808311610b8857829003601f168201915b50509450505050506020604051808303818588803b1515610bc557600080fd5b6125ee5a03f11515610bd657600080fd5b5050505060405180519050925060008373ffffffffffffffffffffffffffffffffffffffff1614151515610c0957600080fd5b505092915050565b6000610c56610c2286868587610c62565b610c486002610c3a8a8c610cb790919063ffffffff16565b610cd890919063ffffffff16565b610cb790919063ffffffff16565b90509695505050505050565b6000610cad84610c9f610c7e8587610cd890919063ffffffff16565b610c91868a610cd890919063ffffffff16565b610cb790919063ffffffff16565b610cb790919063ffffffff16565b9050949350505050565b6000808284019050838110151515610cce57600080fd5b8091505092915050565b60008082840290506000841480610cf95750828482811515610cf657fe5b04145b1515610d0457600080fd5b8091505092915050565b828054600181600116156101000203166002900490600052602060002090601f016020900481019282601f10610d4f57805160ff1916838001178555610d7d565b82800160010185558215610d7d579182015b82811115610d7c578251825591602001919060010190610d61565b5b509050610d8a9190610d8e565b5090565b610db091905b80821115610dac576000816000905550600101610d94565b5090565b905600a165627a7a7230582061cb1c31b96e196f257a1039dab3acf373cee99313c890cfad60f2e0df7e5c010029",
  "source": "pragma solidity ^0.4.18;\n\nimport \"contracts/Library/RequestScheduleLib.sol\";\nimport \"contracts/Scheduler/BaseScheduler.sol\";\n\n/**\n * @title TimestampScheduler\n * @dev Top-level contract that exposes the API to the Ethereum Alarm Clock service and passes in timestamp as temporal unit.\n */\ncontract TimestampScheduler is BaseScheduler {\n\n    /**\n     * @dev Constructor\n     * @param _factoryAddress Address of the RequestFactory which creates requests for this scheduler.\n     */\n    function TimestampScheduler(address _factoryAddress) public {\n        // Default temporal unit is timestamp.\n        temporalUnit = RequestScheduleLib.TemporalUnit(2);\n\n        // Sets the factoryAddress variable found in SchedulerInterface contract.\n        factoryAddress = _factoryAddress;\n    }\n}\n",
  "sourcePath": "/home/logan/Work/ethereum-alarm-clock/contracts/Scheduler/TimestampScheduler.sol",
  "compiler": {
    "name": "solc",
    "version": "0.4.18+commit.9cf6e910.Emscripten.clang"
  },
  "schemaVersion": "1.0.1",
  "updatedAt": "2018-01-06T02:43:01.762Z"
}