{
  "contractName": "BlockScheduler",
  "abi": [
    {
      "constant": true,
      "inputs": [],
      "name": "temporalUnit",
      "outputs": [
        {
          "name": "",
          "type": "uint8"
        }
      ],
      "payable": false,
      "stateMutability": "view",
      "type": "function"
    },
    {
      "constant": true,
      "inputs": [],
      "name": "factoryAddress",
      "outputs": [
        {
          "name": "",
          "type": "address"
        }
      ],
      "payable": false,
      "stateMutability": "view",
      "type": "function"
    },
    {
      "constant": false,
      "inputs": [
        {
          "name": "_toAddress",
          "type": "address"
        },
        {
          "name": "_callData",
          "type": "bytes"
        },
        {
          "name": "_uintArgs",
          "type": "uint256[7]"
        }
      ],
      "name": "schedule",
      "outputs": [
        {
          "name": "newRequest",
          "type": "address"
        }
      ],
      "payable": true,
      "stateMutability": "payable",
      "type": "function"
    },
    {
      "constant": true,
      "inputs": [],
      "name": "futureTransaction",
      "outputs": [
        {
          "name": "toAddress",
          "type": "address"
        },
        {
          "name": "callData",
          "type": "bytes"
        },
        {
          "name": "callGas",
          "type": "uint256"
        },
        {
          "name": "callValue",
          "type": "uint256"
        },
        {
          "name": "windowSize",
          "type": "uint256"
        },
        {
          "name": "windowStart",
          "type": "uint256"
        },
        {
          "name": "gasPrice",
          "type": "uint256"
        },
        {
          "name": "donation",
          "type": "uint256"
        },
        {
          "name": "payment",
          "type": "uint256"
        },
        {
          "name": "reservedWindowSize",
          "type": "uint256"
        },
        {
          "name": "freezePeriod",
          "type": "uint256"
        },
        {
          "name": "claimWindowSize",
          "type": "uint256"
        },
        {
          "name": "temporalUnit",
          "type": "uint8"
        }
      ],
      "payable": false,
      "stateMutability": "view",
      "type": "function"
    },
    {
      "inputs": [
        {
          "name": "_factoryAddress",
          "type": "address"
        }
      ],
      "payable": false,
      "stateMutability": "nonpayable",
      "type": "constructor"
    },
    {
      "payable": true,
      "stateMutability": "payable",
      "type": "fallback"
    },
    {
      "anonymous": false,
      "inputs": [
        {
          "indexed": false,
          "name": "request",
          "type": "address"
        }
      ],
      "name": "NewRequest",
      "type": "event"
    }
  ],
  "bytecode": "0x6060604052341561000f57600080fd5b604051602080610e54833981016040528080519060200190919050506001600281111561003857fe5b600060146101000a81548160ff0219169083600281111561005557fe5b0217905550806000806101000a81548173ffffffffffffffffffffffffffffffffffffffff021916908373ffffffffffffffffffffffffffffffffffffffff16021790555050610daa806100aa6000396000f300606060405260043610610062576000357c0100000000000000000000000000000000000000000000000000000000900463ffffffff1680633c8a072e14610064578063966dae0e1461009b578063afbf783e146100f0578063e666bbcb146101cd575b005b341561006f57600080fd5b610077610306565b6040518082600281111561008757fe5b60ff16815260200191505060405180910390f35b34156100a657600080fd5b6100ae610319565b604051808273ffffffffffffffffffffffffffffffffffffffff1673ffffffffffffffffffffffffffffffffffffffff16815260200191505060405180910390f35b61018b600480803573ffffffffffffffffffffffffffffffffffffffff1690602001909190803590602001908201803590602001908080601f01602080910402602001604051908101604052809392919081815260200183838082843782019150505050505091908060e00190600780602002604051908101604052809291908260076020028082843782019150505050509190505061033e565b604051808273ffffffffffffffffffffffffffffffffffffffff1673ffffffffffffffffffffffffffffffffffffffff16815260200191505060405180910390f35b34156101d857600080fd5b6101e06106f3565b604051808e73ffffffffffffffffffffffffffffffffffffffff1673ffffffffffffffffffffffffffffffffffffffff168152602001806020018d81526020018c81526020018b81526020018a815260200189815260200188815260200187815260200186815260200185815260200184815260200183600281111561026257fe5b60ff16815260200182810382528e8181546001816001161561010002031660029004815260200191508054600181600116156101000203166002900480156102eb5780601f106102c0576101008083540402835291602001916102eb565b820191906000526020600020905b8154815290600101906020018083116102ce57829003601f168201915b50509e50505050505050505050505050505060405180910390f35b600060149054906101000a900460ff1681565b6000809054906101000a900473ffffffffffffffffffffffffffffffffffffffff1681565b60006001600281111561034d57fe5b600060149054906101000a900460ff16600281111561036857fe5b141561040557600173__SchedulerLib__________________________6314c84e5d90916000604051602001526040518263ffffffff167c01000000000000000000000000000000000000000000000000000000000281526004018082815260200191505060206040518083038186803b15156103e457600080fd5b6102c65a03f415156103f557600080fd5b50505060405180519050506104cf565b60028081111561041157fe5b600060149054906101000a900460ff16600281111561042c57fe5b14156104c957600173__SchedulerLib__________________________63e9d2437790916000604051602001526040518263ffffffff167c01000000000000000000000000000000000000000000000000000000000281526004018082815260200191505060206040518083038186803b15156104a857600080fd5b6102c65a03f415156104b957600080fd5b50505060405180519050506104ce565b600080fd5b5b83600160000160006101000a81548173ffffffffffffffffffffffffffffffffffffffff021916908373ffffffffffffffffffffffffffffffffffffffff1602179055508260018001908051906020019061052b929190610cd9565b5081600060078110151561053b57fe5b602002015160016002018190555081600160078110151561055857fe5b602002015160016003018190555081600260078110151561057557fe5b602002015160016004018190555081600360078110151561059257fe5b60200201516001600501819055508160046007811015156105af57fe5b60200201516001600601819055508160056007811015156105cc57fe5b60200201516001600701819055508160066007811015156105e957fe5b6020020151600160080181905550600060149054906101000a900460ff166001600c0160006101000a81548160ff0219169083600281111561062757fe5b02179055506106616000809054906101000a900473ffffffffffffffffffffffffffffffffffffffff16600161077390919063ffffffff16565b905060008173ffffffffffffffffffffffffffffffffffffffff161415151561068957600080fd5b7f2749295aa7ffdbd4d16719dc03d592cd081eebd9bb790ceedce201a40675fc0381604051808273ffffffffffffffffffffffffffffffffffffffff1673ffffffffffffffffffffffffffffffffffffffff16815260200191505060405180910390a19392505050565b60018060000160009054906101000a900473ffffffffffffffffffffffffffffffffffffffff1690806001019080600201549080600301549080600401549080600501549080600601549080600701549080600801549080600901549080600a01549080600b01549080600c0160009054906101000a900460ff1690508d565b600080600083915073__MathLib_______________________________637ae2b5c76108398760080154886007015489600201548a600301548b6006015473__RequestLib____________________________6345104b166000604051602001526040518163ffffffff167c010000000000000000000000000000000000000000000000000000000002815260040160206040518083038186803b151561081957600080fd5b6102c65a03f4151561082a57600080fd5b50505060405180519050610bdc565b3073ffffffffffffffffffffffffffffffffffffffff16316000604051602001526040518363ffffffff167c0100000000000000000000000000000000000000000000000000000000028152600401808381526020018281526020019250505060206040518083038186803b15156108b057600080fd5b6102c65a03f415156108c157600080fd5b5050506040518051905090508173ffffffffffffffffffffffffffffffffffffffff16636f032c52826060604051908101604052803373ffffffffffffffffffffffffffffffffffffffff1673ffffffffffffffffffffffffffffffffffffffff16815260200173ecc9c5fff8937578141592e7e62c2d2e364311b873ffffffffffffffffffffffffffffffffffffffff1673ffffffffffffffffffffffffffffffffffffffff1681526020018960000160009054906101000a900473ffffffffffffffffffffffffffffffffffffffff1673ffffffffffffffffffffffffffffffffffffffff1673ffffffffffffffffffffffffffffffffffffffff16815250610160604051908101604052808a6007015481526020018a6008015481526020018a600b015481526020018a600a015481526020018a6009015481526020018a600c0160009054906101000a900460ff166002811115610a1e57fe5b81526020018a6004015481526020018a6005015481526020018a6002015481526020018a6003015481526020018a60060154815250896001016000604051602001526040518563ffffffff167c01000000000000000000000000000000000000000000000000000000000281526004018084600360200280838360005b83811015610ab6578082015181840152602081019050610a9b565b5050505090500183600b60200280838360005b83811015610ae4578082015181840152602081019050610ac9565b5050505090500180602001828103825283818154600181600116156101000203166002900481526020019150805460018160011615610100020316600290048015610b705780601f10610b4557610100808354040283529160200191610b70565b820191906000526020600020905b815481529060010190602001808311610b5357829003601f168201915b50509450505050506020604051808303818588803b1515610b9057600080fd5b6125ee5a03f11515610ba157600080fd5b5050505060405180519050925060008373ffffffffffffffffffffffffffffffffffffffff1614151515610bd457600080fd5b505092915050565b6000610c21610bed86868587610c2d565b610c136002610c058a8c610c8290919063ffffffff16565b610ca390919063ffffffff16565b610c8290919063ffffffff16565b90509695505050505050565b6000610c7884610c6a610c498587610ca390919063ffffffff16565b610c5c868a610ca390919063ffffffff16565b610c8290919063ffffffff16565b610c8290919063ffffffff16565b9050949350505050565b6000808284019050838110151515610c9957600080fd5b8091505092915050565b60008082840290506000841480610cc45750828482811515610cc157fe5b04145b1515610ccf57600080fd5b8091505092915050565b828054600181600116156101000203166002900490600052602060002090601f016020900481019282601f10610d1a57805160ff1916838001178555610d48565b82800160010185558215610d48579182015b82811115610d47578251825591602001919060010190610d2c565b5b509050610d559190610d59565b5090565b610d7b91905b80821115610d77576000816000905550600101610d5f565b5090565b905600a165627a7a723058209f850e332d5789c034e217cc5085b2cfad95d3f6cc6878374c444344532ef8fa0029",
  "source": "pragma solidity ^0.4.18;\n\nimport \"contracts/Library/RequestScheduleLib.sol\";\nimport \"contracts/Scheduler/BaseScheduler.sol\";\n\n/**\n * @title BlockScheduler\n * @dev Top-level contract that exposes the API to the Ethereum Alarm Clock service and passes in blocks as temporal unit.\n */\ncontract BlockScheduler is BaseScheduler {\n\n    /**\n     * @dev Constructor\n     * @param _factoryAddress Address of the RequestFactory which creates requests for this scheduler.\n     */\n    function BlockScheduler(address _factoryAddress) public {\n        // Default temporal unit is block number.\n        temporalUnit = RequestScheduleLib.TemporalUnit(1);\n\n        // Sets the factoryAddress variable found in SchedulerInterface contract.\n        factoryAddress = _factoryAddress;\n    }\n}\n",
  "sourcePath": "/home/logan/Work/ethereum-alarm-clock/contracts/Scheduler/BlockScheduler.sol",
  "compiler": {
    "name": "solc",
    "version": "0.4.18+commit.9cf6e910.Emscripten.clang"
  },
  "schemaVersion": "1.0.1",
  "updatedAt": "2017-12-30T17:51:08.029Z"
}