{
  "contractName": "TransactionRequest",
  "abi": [
    {
      "constant": true,
      "inputs": [],
      "name": "callData",
      "outputs": [
        {
          "name": "data",
          "type": "bytes"
        }
      ],
      "payable": false,
      "stateMutability": "view",
      "type": "function"
    },
    {
      "constant": false,
      "inputs": [],
      "name": "claim",
      "outputs": [
        {
          "name": "",
          "type": "bool"
        }
      ],
      "payable": true,
      "stateMutability": "payable",
      "type": "function"
    },
    {
      "constant": true,
      "inputs": [],
      "name": "requestData",
      "outputs": [
        {
          "name": "",
          "type": "address[6]"
        },
        {
          "name": "",
          "type": "bool[3]"
        },
        {
          "name": "",
          "type": "uint256[14]"
        },
        {
          "name": "",
          "type": "uint8[1]"
        }
      ],
      "payable": false,
      "stateMutability": "view",
      "type": "function"
    },
    {
      "constant": false,
      "inputs": [],
      "name": "execute",
      "outputs": [
        {
          "name": "",
          "type": "bool"
        }
      ],
      "payable": false,
      "stateMutability": "nonpayable",
      "type": "function"
    },
    {
      "constant": false,
      "inputs": [],
      "name": "sendPayment",
      "outputs": [
        {
          "name": "",
          "type": "bool"
        }
      ],
      "payable": false,
      "stateMutability": "nonpayable",
      "type": "function"
    },
    {
      "constant": false,
      "inputs": [],
      "name": "sendOwnerEther",
      "outputs": [
        {
          "name": "",
          "type": "bool"
        }
      ],
      "payable": false,
      "stateMutability": "nonpayable",
      "type": "function"
    },
    {
      "constant": false,
      "inputs": [],
      "name": "sendDonation",
      "outputs": [
        {
          "name": "",
          "type": "bool"
        }
      ],
      "payable": false,
      "stateMutability": "nonpayable",
      "type": "function"
    },
    {
      "constant": false,
      "inputs": [],
      "name": "refundClaimDeposit",
      "outputs": [],
      "payable": false,
      "stateMutability": "nonpayable",
      "type": "function"
    },
    {
      "constant": false,
      "inputs": [
        {
          "name": "_to",
          "type": "address"
        },
        {
          "name": "_data",
          "type": "bytes"
        }
      ],
      "name": "proxy",
      "outputs": [
        {
          "name": "success",
          "type": "bool"
        }
      ],
      "payable": true,
      "stateMutability": "payable",
      "type": "function"
    },
    {
      "constant": false,
      "inputs": [],
      "name": "cancel",
      "outputs": [
        {
          "name": "",
          "type": "bool"
        }
      ],
      "payable": false,
      "stateMutability": "nonpayable",
      "type": "function"
    },
    {
      "inputs": [
        {
          "name": "addressArgs",
          "type": "address[4]"
        },
        {
          "name": "uintArgs",
          "type": "uint256[11]"
        },
        {
          "name": "callData",
          "type": "bytes"
        }
      ],
      "payable": true,
      "stateMutability": "payable",
      "type": "constructor"
    },
    {
      "payable": true,
      "stateMutability": "payable",
      "type": "fallback"
    }
  ],
  "bytecode": "0x6060604052604051620020c0380380620020c0833981016040528090816080019081610160018051820191905050600073__RequestLib____________________________6329aa5c6590918585856000604051602001526040518563ffffffff167c01000000000000000000000000000000000000000000000000000000000281526004018085815260200184600460200280838360005b83811015620000b557808201518184015260208101905062000098565b5050505090500183600b60200280838360005b83811015620000e5578082015181840152602081019050620000c8565b5050505090500180602001828103825283818151815260200191508051906020019080838360005b838110156200012a5780820151818401526020810190506200010d565b50505050905090810190601f168015620001585780820380516001836020036101000a031916815260200191505b509550505050505060206040518083038186803b15156200017857600080fd5b6102c65a03f415156200018a57600080fd5b5050506040518051905050505050611f1880620001a86000396000f3006060604052600436106100a4576000357c0100000000000000000000000000000000000000000000000000000000900463ffffffff1680634e417a98146100a65780634e71d92d14610134578063606deecd1461015657806361461954146102345780636720ceb1146102615780636949a0581461028e5780638dd8596c146102bb578063b311ee0c146102e8578063be6d055a146102fd578063ea8a1af014610386575b005b34156100b157600080fd5b6100b96103b3565b6040518080602001828103825283818151815260200191508051906020019080838360005b838110156100f95780820151818401526020810190506100de565b50505050905090810190601f1680156101265780820380516001836020036101000a031916815260200191505b509250505060405180910390f35b61013c610460565b604051808215151515815260200191505060405180910390f35b341561016157600080fd5b610169610471565b6040518085600660200280838360005b83811015610194578082015181840152602081019050610179565b5050505090500184600360200280838360005b838110156101c25780820151818401526020810190506101a7565b5050505090500183600e60200280838360005b838110156101f05780820151818401526020810190506101d5565b5050505090500182600160200280838360005b8381101561021e578082015181840152602081019050610203565b5050505090500194505050505060405180910390f35b341561023f57600080fd5b610247610655565b604051808215151515815260200191505060405180910390f35b341561026c57600080fd5b610274610666565b604051808215151515815260200191505060405180910390f35b341561029957600080fd5b6102a16106fd565b604051808215151515815260200191505060405180910390f35b34156102c657600080fd5b6102ce610794565b604051808215151515815260200191505060405180910390f35b34156102f357600080fd5b6102fb61082b565b005b61036c600480803573ffffffffffffffffffffffffffffffffffffffff1690602001909190803590602001908201803590602001908080601f016020809104026020016040519081016040528093929190818152602001838380828437820191505050505050919050506108ae565b604051808215151515815260200191505060405180910390f35b341561039157600080fd5b6103996109bb565b604051808215151515815260200191505060405180910390f35b6103bb611e1c565b600080016001018054600181600116156101000203166002900480601f0160208091040260200160405190810160405280929190818152602001828054600181600116156101000203166002900480156104565780601f1061042b57610100808354040283529160200191610456565b820191906000526020600020905b81548152906001019060200180831161043957829003601f168201915b5050505050905090565b600061046c6000610a52565b905090565b610479611e30565b610481611e6e565b610489611e98565b610491611ec1565b61049b6000610abf565b1561064a5760006017016000016000601701600601600060170160070160006017016015018360068060200260405190810160405280929190826006801561052e576020028201915b8160009054906101000a900473ffffffffffffffffffffffffffffffffffffffff1673ffffffffffffffffffffffffffffffffffffffff16815260200190600101908083116104e4575b5050505050935082600380602002604051908101604052809291908260038015610592576020028201916000905b82829054906101000a900460ff1615158152602001906001019060208260000104928301926001038202915080841161055c5790505b5050505050925081600e806020026040519081016040528092919082600e80156105d1576020028201915b8154815260200190600101908083116105bd575b5050505050915080600180602002604051908101604052809291908260018015610636576020028201916000905b82829054906101000a900460ff1660ff16815260200190600101906020826000010492830192600103820291508084116105ff5790505b50505050509050935093509350935061064f565b600080fd5b90919293565b600061066160006110cb565b905090565b60008073__RequestLib____________________________633cf3789990916000604051602001526040518263ffffffff167c01000000000000000000000000000000000000000000000000000000000281526004018082815260200191505060206040518083038186803b15156106dd57600080fd5b6102c65a03f415156106ee57600080fd5b50505060405180519050905090565b60008073__RequestLib____________________________634074b91c90916000604051602001526040518263ffffffff167c01000000000000000000000000000000000000000000000000000000000281526004018082815260200191505060206040518083038186803b151561077457600080fd5b6102c65a03f4151561078557600080fd5b50505060405180519050905090565b60008073__RequestLib____________________________63c9b15e0590916000604051602001526040518263ffffffff167c01000000000000000000000000000000000000000000000000000000000281526004018082815260200191505060206040518083038186803b151561080b57600080fd5b6102c65a03f4151561081c57600080fd5b50505060405180519050905090565b600073__RequestLib____________________________637994549a90916040518263ffffffff167c01000000000000000000000000000000000000000000000000000000000281526004018082815260200191505060006040518083038186803b151561089857600080fd5b6102c65a03f415156108a957600080fd5b505050565b60003373ffffffffffffffffffffffffffffffffffffffff16600060050160000160009054906101000a900473ffffffffffffffffffffffffffffffffffffffff1673ffffffffffffffffffffffffffffffffffffffff1614801561091c575061091b60006011016116a9565b5b151561092757600080fd5b8273ffffffffffffffffffffffffffffffffffffffff16348360405180828051906020019080838360005b8381101561096d578082015181840152602081019050610952565b50505050905090810190601f16801561099a5780820380516001836020036101000a031916815260200191505b5091505060006040518083038185876187965a03f192505050905092915050565b60008073__RequestLib____________________________6332839d9890916000604051602001526040518263ffffffff167c01000000000000000000000000000000000000000000000000000000000281526004018082815260200191505060206040518083038186803b1515610a3257600080fd5b6102c65a03f41515610a4357600080fd5b50505060405180519050905090565b6000610a5d826116c5565b1515610a6857600080fd5b610a89610a778360110161173e565b83600d016117a590919063ffffffff16565b507fbcb472984264b16baa8cde752f2af002ea8ce06f35d81caee36625234edd2a4660405160405180910390a160019050919050565b600081600d0160000160009054906101000a900473ffffffffffffffffffffffffffffffffffffffff16826017016000016000600681101515610afe57fe5b0160006101000a81548173ffffffffffffffffffffffffffffffffffffffff021916908373ffffffffffffffffffffffffffffffffffffffff1602179055508160050160010160009054906101000a900473ffffffffffffffffffffffffffffffffffffffff16826017016000016001600681101515610b7a57fe5b0160006101000a81548173ffffffffffffffffffffffffffffffffffffffff021916908373ffffffffffffffffffffffffffffffffffffffff1602179055508160050160000160009054906101000a900473ffffffffffffffffffffffffffffffffffffffff16826017016000016002600681101515610bf657fe5b0160006101000a81548173ffffffffffffffffffffffffffffffffffffffff021916908373ffffffffffffffffffffffffffffffffffffffff1602179055508160070160040160009054906101000a900473ffffffffffffffffffffffffffffffffffffffff16826017016000016003600681101515610c7257fe5b0160006101000a81548173ffffffffffffffffffffffffffffffffffffffff021916908373ffffffffffffffffffffffffffffffffffffffff1602179055508160070160010160009054906101000a900473ffffffffffffffffffffffffffffffffffffffff16826017016000016004600681101515610cee57fe5b0160006101000a81548173ffffffffffffffffffffffffffffffffffffffff021916908373ffffffffffffffffffffffffffffffffffffffff1602179055508160000160000160009054906101000a900473ffffffffffffffffffffffffffffffffffffffff16826017016000016005600681101515610d6a57fe5b0160006101000a81548173ffffffffffffffffffffffffffffffffffffffff021916908373ffffffffffffffffffffffffffffffffffffffff1602179055508160050160010160149054906101000a900460ff16826017016006016000600381101515610dd357fe5b602091828204019190066101000a81548160ff0219169083151502179055508160050160010160159054906101000a900460ff16826017016006016001600381101515610e1c57fe5b602091828204019190066101000a81548160ff0219169083151502179055508160050160010160169054906101000a900460ff16826017016006016002600381101515610e6557fe5b602091828204019190066101000a81548160ff02191690831515021790555081600d0160010154826017016007016000600e81101515610ea157fe5b01819055508160070160030154826017016007016001600e81101515610ec357fe5b01819055508160070160050154826017016007016002600e81101515610ee557fe5b01819055508160070160000154826017016007016003600e81101515610f0757fe5b01819055508160070160020154826017016007016004600e81101515610f2957fe5b01819055508160110160050154826017016007016005600e81101515610f4b57fe5b01819055508160110160030154826017016007016006600e81101515610f6d57fe5b01819055508160110160040154826017016007016007600e81101515610f8f57fe5b01819055508160110160000160009054906101000a900460ff166002811115610fb457fe5b826017016007016008600e81101515610fc957fe5b01819055508160110160020154826017016007016009600e81101515610feb57fe5b0181905550816011016001015482601701600701600a600e8110151561100d57fe5b0181905550816000016003015482601701600701600b600e8110151561102f57fe5b0181905550816000016002015482601701600701600c600e8110151561105157fe5b0181905550816000016004015482601701600701600d600e8110151561107357fe5b018190555081600d0160030160009054906101000a900460ff168260170160150160006001811015156110a257fe5b602091828204019190066101000a81548160ff021916908360ff16021790555060019050919050565b6000806000805a92506110f16161a86110e387611816565b61183c90919063ffffffff16565b5a101561114a577fc008bc849b42227c61d5063a1313ce509a6e99211bfd59e827e417be6c65c81b6005600681111561112657fe5b604051808260ff1660ff16815260200191505060405180910390a1600093506116a1565b8460050160010160159054906101000a900460ff16156111b6577fc008bc849b42227c61d5063a1313ce509a6e99211bfd59e827e417be6c65c81b6001600681111561119257fe5b604051808260ff1660ff16815260200191505060405180910390a1600093506116a1565b8460050160010160149054906101000a900460ff1615611222577fc008bc849b42227c61d5063a1313ce509a6e99211bfd59e827e417be6c65c81b600060068111156111fe57fe5b604051808260ff1660ff16815260200191505060405180910390a1600093506116a1565b61122e85601101611858565b15611285577fc008bc849b42227c61d5063a1313ce509a6e99211bfd59e827e417be6c65c81b6002600681111561126157fe5b604051808260ff1660ff16815260200191505060405180910390a1600093506116a1565b611291856011016116a9565b156112e8577fc008bc849b42227c61d5063a1313ce509a6e99211bfd59e827e417be6c65c81b600360068111156112c457fe5b604051808260ff1660ff16815260200191505060405180910390a1600093506116a1565b6112f485600d01611870565b8015611353575084600d0160000160009054906101000a900473ffffffffffffffffffffffffffffffffffffffff1673ffffffffffffffffffffffffffffffffffffffff163373ffffffffffffffffffffffffffffffffffffffff1614155b80156113675750611366856011016118b7565b5b156113be577fc008bc849b42227c61d5063a1313ce509a6e99211bfd59e827e417be6c65c81b6004600681111561139a57fe5b604051808260ff1660ff16815260200191505060405180910390a1600093506116a1565b3a856000016004015414151561141f577fc008bc849b42227c61d5063a1313ce509a6e99211bfd59e827e417be6c65c81b6006808111156113fb57fe5b604051808260ff1660ff16815260200191505060405180910390a1600093506116a1565b60018560050160010160156101000a81548160ff02191690831515021790555061144b856000016118eb565b8560050160010160166101000a81548160ff021916908315150217905550611475856007016119ba565b156114ab5761149f856007016005015461149187600701611a01565b611a0f90919063ffffffff16565b85600701600501819055505b846007016005015491506114c185600701611a30565b50338560070160010160006101000a81548173ffffffffffffffffffffffffffffffffffffffff021916908373ffffffffffffffffffffffffffffffffffffffff16021790555061151485600d01611870565b156115a55761153a856007016002015486600d0160010154611a0f90919063ffffffff16565b8560070160020181905550600085600d0160010181905550611595856007016002015461158787600d0160030160009054906101000a900460ff1688600701611ab890919063ffffffff16565b611a0f90919063ffffffff16565b85600701600201819055506115d6565b6115ca85600701600201546115bc87600701611af3565b611a0f90919063ffffffff16565b85600701600201819055505b6115fe62015f906115f05a8661183c90919063ffffffff16565b611a0f90919063ffffffff16565b905061162c856007016002015461161e3a84611b0190919063ffffffff16565b611a0f90919063ffffffff16565b85600701600201819055507f3e504bb8b225ad41f613b0c3c4205cdd752d1615b4d77cd1773417282fcfb5d98560070160020154838360405180848152602001838152602001828152602001935050505060405180910390a161169185600701611b37565b5061169b85611bbf565b50600193505b505050919050565b60006116b482611c8b565b6116bd83611caf565b119050919050565b60006116d382600d01611870565b1515156116df57600080fd5b8160050160010160149054906101000a900460ff1615151561170057600080fd5b61170c82601101611cd2565b151561171757600080fd5b6117278260070160000154611d1b565b341015151561173557600080fd5b60019050919050565b60008061178d836005015461177f606461177161175a88611d38565b61176389611caf565b61183c90919063ffffffff16565b611b0190919063ffffffff16565b611d6090919063ffffffff16565b90506064811115151561179c57fe5b80915050919050565b6000338360000160006101000a81548173ffffffffffffffffffffffffffffffffffffffff021916908373ffffffffffffffffffffffffffffffffffffffff160217905550348360010181905550818360030160006101000a81548160ff021916908360ff16021790555092915050565b60006118356202bf208360000160030154611a0f90919063ffffffff16565b9050919050565b600082821115151561184d57600080fd5b818303905092915050565b6000816001015461186883611caf565b109050919050565b6000808260000160009054906101000a900473ffffffffffffffffffffffffffffffffffffffff1673ffffffffffffffffffffffffffffffffffffffff1614159050919050565b60006118c282611caf565b8260010154111580156118e457506118d982611d7b565b6118e283611caf565b105b9050919050565b60008160000160009054906101000a900473ffffffffffffffffffffffffffffffffffffffff1673ffffffffffffffffffffffffffffffffffffffff16826002015483600301549084600101604051808280546001816001161561010002031660029004801561199c5780601f106119715761010080835404028352916020019161199c565b820191906000526020600020905b81548152906001019060200180831161197f57829003601f168201915b5050915050600060405180830381858888f193505050509050919050565b6000808260040160009054906101000a900473ffffffffffffffffffffffffffffffffffffffff1673ffffffffffffffffffffffffffffffffffffffff1614159050919050565b600081600301549050919050565b6000808284019050838110151515611a2657600080fd5b8091505092915050565b600080826005015490506000811115611aad57600083600501819055508260040160009054906101000a900473ffffffffffffffffffffffffffffffffffffffff1673ffffffffffffffffffffffffffffffffffffffff166108fc829081150290604051600060405180830381858888f193505050509150611ab2565b600191505b50919050565b6000611aeb6064611add8460ff16611acf87611af3565b611b0190919063ffffffff16565b611d6090919063ffffffff16565b905092915050565b600081600001549050919050565b60008082840290506000841480611b225750828482811515611b1f57fe5b04145b1515611b2d57600080fd5b8091505092915050565b600080826002015490506000811115611bb457600083600201819055508260010160009054906101000a900473ffffffffffffffffffffffffffffffffffffffff1673ffffffffffffffffffffffffffffffffffffffff166108fc829081150290604051600060405180830381858888f193505050509150611bb9565b600191505b50919050565b600080611c258360070160050154611c178560070160020154611c0987600d01600101543073ffffffffffffffffffffffffffffffffffffffff163161183c90919063ffffffff16565b61183c90919063ffffffff16565b61183c90919063ffffffff16565b90508260050160000160009054906101000a900473ffffffffffffffffffffffffffffffffffffffff1673ffffffffffffffffffffffffffffffffffffffff166108fc829081150290604051600060405180830381858888f19350505050915050919050565b6000611ca882600201548360010154611a0f90919063ffffffff16565b9050919050565b6000611ccb8260000160009054906101000a900460ff16611d9f565b9050919050565b6000611cdd82611caf565b611ce683611d38565b11158015611d035750611cf882611df8565b611d0183611caf565b105b15611d115760019050611d16565b600090505b919050565b6000611d31600283611b0190919063ffffffff16565b9050919050565b6000611d598260050154611d4b84611df8565b61183c90919063ffffffff16565b9050919050565b6000808284811515611d6e57fe5b0490508091505092915050565b6000611d9882600401548360010154611a0f90919063ffffffff16565b9050919050565b6000600280811115611dad57fe5b826002811115611db957fe5b1415611dc757429050611df3565b60016002811115611dd457fe5b826002811115611de057fe5b1415611dee57439050611df3565b600080fd5b919050565b6000611e158260030154836001015461183c90919063ffffffff16565b9050919050565b602060405190810160405280600081525090565b60c0604051908101604052806006905b600073ffffffffffffffffffffffffffffffffffffffff16815260200190600190039081611e405790505090565b6060604051908101604052806003905b60001515815260200190600190039081611e7e5790505090565b6101c060405190810160405280600e905b6000815260200190600190039081611ea95790505090565b6020604051908101604052806001905b600060ff16815260200190600190039081611ed157905050905600a165627a7a72305820373a0ac42412b2b6e043f8fc70778eae2079c8ad9024adee718e935e1907967a0029",
  "deployedBytecode": "0x6060604052600436106100a4576000357c0100000000000000000000000000000000000000000000000000000000900463ffffffff1680634e417a98146100a65780634e71d92d14610134578063606deecd1461015657806361461954146102345780636720ceb1146102615780636949a0581461028e5780638dd8596c146102bb578063b311ee0c146102e8578063be6d055a146102fd578063ea8a1af014610386575b005b34156100b157600080fd5b6100b96103b3565b6040518080602001828103825283818151815260200191508051906020019080838360005b838110156100f95780820151818401526020810190506100de565b50505050905090810190601f1680156101265780820380516001836020036101000a031916815260200191505b509250505060405180910390f35b61013c610460565b604051808215151515815260200191505060405180910390f35b341561016157600080fd5b610169610471565b6040518085600660200280838360005b83811015610194578082015181840152602081019050610179565b5050505090500184600360200280838360005b838110156101c25780820151818401526020810190506101a7565b5050505090500183600e60200280838360005b838110156101f05780820151818401526020810190506101d5565b5050505090500182600160200280838360005b8381101561021e578082015181840152602081019050610203565b5050505090500194505050505060405180910390f35b341561023f57600080fd5b610247610655565b604051808215151515815260200191505060405180910390f35b341561026c57600080fd5b610274610666565b604051808215151515815260200191505060405180910390f35b341561029957600080fd5b6102a16106fd565b604051808215151515815260200191505060405180910390f35b34156102c657600080fd5b6102ce610794565b604051808215151515815260200191505060405180910390f35b34156102f357600080fd5b6102fb61082b565b005b61036c600480803573ffffffffffffffffffffffffffffffffffffffff1690602001909190803590602001908201803590602001908080601f016020809104026020016040519081016040528093929190818152602001838380828437820191505050505050919050506108ae565b604051808215151515815260200191505060405180910390f35b341561039157600080fd5b6103996109bb565b604051808215151515815260200191505060405180910390f35b6103bb611e1c565b600080016001018054600181600116156101000203166002900480601f0160208091040260200160405190810160405280929190818152602001828054600181600116156101000203166002900480156104565780601f1061042b57610100808354040283529160200191610456565b820191906000526020600020905b81548152906001019060200180831161043957829003601f168201915b5050505050905090565b600061046c6000610a52565b905090565b610479611e30565b610481611e6e565b610489611e98565b610491611ec1565b61049b6000610abf565b1561064a5760006017016000016000601701600601600060170160070160006017016015018360068060200260405190810160405280929190826006801561052e576020028201915b8160009054906101000a900473ffffffffffffffffffffffffffffffffffffffff1673ffffffffffffffffffffffffffffffffffffffff16815260200190600101908083116104e4575b5050505050935082600380602002604051908101604052809291908260038015610592576020028201916000905b82829054906101000a900460ff1615158152602001906001019060208260000104928301926001038202915080841161055c5790505b5050505050925081600e806020026040519081016040528092919082600e80156105d1576020028201915b8154815260200190600101908083116105bd575b5050505050915080600180602002604051908101604052809291908260018015610636576020028201916000905b82829054906101000a900460ff1660ff16815260200190600101906020826000010492830192600103820291508084116105ff5790505b50505050509050935093509350935061064f565b600080fd5b90919293565b600061066160006110cb565b905090565b60008073__RequestLib____________________________633cf3789990916000604051602001526040518263ffffffff167c01000000000000000000000000000000000000000000000000000000000281526004018082815260200191505060206040518083038186803b15156106dd57600080fd5b6102c65a03f415156106ee57600080fd5b50505060405180519050905090565b60008073__RequestLib____________________________634074b91c90916000604051602001526040518263ffffffff167c01000000000000000000000000000000000000000000000000000000000281526004018082815260200191505060206040518083038186803b151561077457600080fd5b6102c65a03f4151561078557600080fd5b50505060405180519050905090565b60008073__RequestLib____________________________63c9b15e0590916000604051602001526040518263ffffffff167c01000000000000000000000000000000000000000000000000000000000281526004018082815260200191505060206040518083038186803b151561080b57600080fd5b6102c65a03f4151561081c57600080fd5b50505060405180519050905090565b600073__RequestLib____________________________637994549a90916040518263ffffffff167c01000000000000000000000000000000000000000000000000000000000281526004018082815260200191505060006040518083038186803b151561089857600080fd5b6102c65a03f415156108a957600080fd5b505050565b60003373ffffffffffffffffffffffffffffffffffffffff16600060050160000160009054906101000a900473ffffffffffffffffffffffffffffffffffffffff1673ffffffffffffffffffffffffffffffffffffffff1614801561091c575061091b60006011016116a9565b5b151561092757600080fd5b8273ffffffffffffffffffffffffffffffffffffffff16348360405180828051906020019080838360005b8381101561096d578082015181840152602081019050610952565b50505050905090810190601f16801561099a5780820380516001836020036101000a031916815260200191505b5091505060006040518083038185876187965a03f192505050905092915050565b60008073__RequestLib____________________________6332839d9890916000604051602001526040518263ffffffff167c01000000000000000000000000000000000000000000000000000000000281526004018082815260200191505060206040518083038186803b1515610a3257600080fd5b6102c65a03f41515610a4357600080fd5b50505060405180519050905090565b6000610a5d826116c5565b1515610a6857600080fd5b610a89610a778360110161173e565b83600d016117a590919063ffffffff16565b507fbcb472984264b16baa8cde752f2af002ea8ce06f35d81caee36625234edd2a4660405160405180910390a160019050919050565b600081600d0160000160009054906101000a900473ffffffffffffffffffffffffffffffffffffffff16826017016000016000600681101515610afe57fe5b0160006101000a81548173ffffffffffffffffffffffffffffffffffffffff021916908373ffffffffffffffffffffffffffffffffffffffff1602179055508160050160010160009054906101000a900473ffffffffffffffffffffffffffffffffffffffff16826017016000016001600681101515610b7a57fe5b0160006101000a81548173ffffffffffffffffffffffffffffffffffffffff021916908373ffffffffffffffffffffffffffffffffffffffff1602179055508160050160000160009054906101000a900473ffffffffffffffffffffffffffffffffffffffff16826017016000016002600681101515610bf657fe5b0160006101000a81548173ffffffffffffffffffffffffffffffffffffffff021916908373ffffffffffffffffffffffffffffffffffffffff1602179055508160070160040160009054906101000a900473ffffffffffffffffffffffffffffffffffffffff16826017016000016003600681101515610c7257fe5b0160006101000a81548173ffffffffffffffffffffffffffffffffffffffff021916908373ffffffffffffffffffffffffffffffffffffffff1602179055508160070160010160009054906101000a900473ffffffffffffffffffffffffffffffffffffffff16826017016000016004600681101515610cee57fe5b0160006101000a81548173ffffffffffffffffffffffffffffffffffffffff021916908373ffffffffffffffffffffffffffffffffffffffff1602179055508160000160000160009054906101000a900473ffffffffffffffffffffffffffffffffffffffff16826017016000016005600681101515610d6a57fe5b0160006101000a81548173ffffffffffffffffffffffffffffffffffffffff021916908373ffffffffffffffffffffffffffffffffffffffff1602179055508160050160010160149054906101000a900460ff16826017016006016000600381101515610dd357fe5b602091828204019190066101000a81548160ff0219169083151502179055508160050160010160159054906101000a900460ff16826017016006016001600381101515610e1c57fe5b602091828204019190066101000a81548160ff0219169083151502179055508160050160010160169054906101000a900460ff16826017016006016002600381101515610e6557fe5b602091828204019190066101000a81548160ff02191690831515021790555081600d0160010154826017016007016000600e81101515610ea157fe5b01819055508160070160030154826017016007016001600e81101515610ec357fe5b01819055508160070160050154826017016007016002600e81101515610ee557fe5b01819055508160070160000154826017016007016003600e81101515610f0757fe5b01819055508160070160020154826017016007016004600e81101515610f2957fe5b01819055508160110160050154826017016007016005600e81101515610f4b57fe5b01819055508160110160030154826017016007016006600e81101515610f6d57fe5b01819055508160110160040154826017016007016007600e81101515610f8f57fe5b01819055508160110160000160009054906101000a900460ff166002811115610fb457fe5b826017016007016008600e81101515610fc957fe5b01819055508160110160020154826017016007016009600e81101515610feb57fe5b0181905550816011016001015482601701600701600a600e8110151561100d57fe5b0181905550816000016003015482601701600701600b600e8110151561102f57fe5b0181905550816000016002015482601701600701600c600e8110151561105157fe5b0181905550816000016004015482601701600701600d600e8110151561107357fe5b018190555081600d0160030160009054906101000a900460ff168260170160150160006001811015156110a257fe5b602091828204019190066101000a81548160ff021916908360ff16021790555060019050919050565b6000806000805a92506110f16161a86110e387611816565b61183c90919063ffffffff16565b5a101561114a577fc008bc849b42227c61d5063a1313ce509a6e99211bfd59e827e417be6c65c81b6005600681111561112657fe5b604051808260ff1660ff16815260200191505060405180910390a1600093506116a1565b8460050160010160159054906101000a900460ff16156111b6577fc008bc849b42227c61d5063a1313ce509a6e99211bfd59e827e417be6c65c81b6001600681111561119257fe5b604051808260ff1660ff16815260200191505060405180910390a1600093506116a1565b8460050160010160149054906101000a900460ff1615611222577fc008bc849b42227c61d5063a1313ce509a6e99211bfd59e827e417be6c65c81b600060068111156111fe57fe5b604051808260ff1660ff16815260200191505060405180910390a1600093506116a1565b61122e85601101611858565b15611285577fc008bc849b42227c61d5063a1313ce509a6e99211bfd59e827e417be6c65c81b6002600681111561126157fe5b604051808260ff1660ff16815260200191505060405180910390a1600093506116a1565b611291856011016116a9565b156112e8577fc008bc849b42227c61d5063a1313ce509a6e99211bfd59e827e417be6c65c81b600360068111156112c457fe5b604051808260ff1660ff16815260200191505060405180910390a1600093506116a1565b6112f485600d01611870565b8015611353575084600d0160000160009054906101000a900473ffffffffffffffffffffffffffffffffffffffff1673ffffffffffffffffffffffffffffffffffffffff163373ffffffffffffffffffffffffffffffffffffffff1614155b80156113675750611366856011016118b7565b5b156113be577fc008bc849b42227c61d5063a1313ce509a6e99211bfd59e827e417be6c65c81b6004600681111561139a57fe5b604051808260ff1660ff16815260200191505060405180910390a1600093506116a1565b3a856000016004015414151561141f577fc008bc849b42227c61d5063a1313ce509a6e99211bfd59e827e417be6c65c81b6006808111156113fb57fe5b604051808260ff1660ff16815260200191505060405180910390a1600093506116a1565b60018560050160010160156101000a81548160ff02191690831515021790555061144b856000016118eb565b8560050160010160166101000a81548160ff021916908315150217905550611475856007016119ba565b156114ab5761149f856007016005015461149187600701611a01565b611a0f90919063ffffffff16565b85600701600501819055505b846007016005015491506114c185600701611a30565b50338560070160010160006101000a81548173ffffffffffffffffffffffffffffffffffffffff021916908373ffffffffffffffffffffffffffffffffffffffff16021790555061151485600d01611870565b156115a55761153a856007016002015486600d0160010154611a0f90919063ffffffff16565b8560070160020181905550600085600d0160010181905550611595856007016002015461158787600d0160030160009054906101000a900460ff1688600701611ab890919063ffffffff16565b611a0f90919063ffffffff16565b85600701600201819055506115d6565b6115ca85600701600201546115bc87600701611af3565b611a0f90919063ffffffff16565b85600701600201819055505b6115fe62015f906115f05a8661183c90919063ffffffff16565b611a0f90919063ffffffff16565b905061162c856007016002015461161e3a84611b0190919063ffffffff16565b611a0f90919063ffffffff16565b85600701600201819055507f3e504bb8b225ad41f613b0c3c4205cdd752d1615b4d77cd1773417282fcfb5d98560070160020154838360405180848152602001838152602001828152602001935050505060405180910390a161169185600701611b37565b5061169b85611bbf565b50600193505b505050919050565b60006116b482611c8b565b6116bd83611caf565b119050919050565b60006116d382600d01611870565b1515156116df57600080fd5b8160050160010160149054906101000a900460ff1615151561170057600080fd5b61170c82601101611cd2565b151561171757600080fd5b6117278260070160000154611d1b565b341015151561173557600080fd5b60019050919050565b60008061178d836005015461177f606461177161175a88611d38565b61176389611caf565b61183c90919063ffffffff16565b611b0190919063ffffffff16565b611d6090919063ffffffff16565b90506064811115151561179c57fe5b80915050919050565b6000338360000160006101000a81548173ffffffffffffffffffffffffffffffffffffffff021916908373ffffffffffffffffffffffffffffffffffffffff160217905550348360010181905550818360030160006101000a81548160ff021916908360ff16021790555092915050565b60006118356202bf208360000160030154611a0f90919063ffffffff16565b9050919050565b600082821115151561184d57600080fd5b818303905092915050565b6000816001015461186883611caf565b109050919050565b6000808260000160009054906101000a900473ffffffffffffffffffffffffffffffffffffffff1673ffffffffffffffffffffffffffffffffffffffff1614159050919050565b60006118c282611caf565b8260010154111580156118e457506118d982611d7b565b6118e283611caf565b105b9050919050565b60008160000160009054906101000a900473ffffffffffffffffffffffffffffffffffffffff1673ffffffffffffffffffffffffffffffffffffffff16826002015483600301549084600101604051808280546001816001161561010002031660029004801561199c5780601f106119715761010080835404028352916020019161199c565b820191906000526020600020905b81548152906001019060200180831161197f57829003601f168201915b5050915050600060405180830381858888f193505050509050919050565b6000808260040160009054906101000a900473ffffffffffffffffffffffffffffffffffffffff1673ffffffffffffffffffffffffffffffffffffffff1614159050919050565b600081600301549050919050565b6000808284019050838110151515611a2657600080fd5b8091505092915050565b600080826005015490506000811115611aad57600083600501819055508260040160009054906101000a900473ffffffffffffffffffffffffffffffffffffffff1673ffffffffffffffffffffffffffffffffffffffff166108fc829081150290604051600060405180830381858888f193505050509150611ab2565b600191505b50919050565b6000611aeb6064611add8460ff16611acf87611af3565b611b0190919063ffffffff16565b611d6090919063ffffffff16565b905092915050565b600081600001549050919050565b60008082840290506000841480611b225750828482811515611b1f57fe5b04145b1515611b2d57600080fd5b8091505092915050565b600080826002015490506000811115611bb457600083600201819055508260010160009054906101000a900473ffffffffffffffffffffffffffffffffffffffff1673ffffffffffffffffffffffffffffffffffffffff166108fc829081150290604051600060405180830381858888f193505050509150611bb9565b600191505b50919050565b600080611c258360070160050154611c178560070160020154611c0987600d01600101543073ffffffffffffffffffffffffffffffffffffffff163161183c90919063ffffffff16565b61183c90919063ffffffff16565b61183c90919063ffffffff16565b90508260050160000160009054906101000a900473ffffffffffffffffffffffffffffffffffffffff1673ffffffffffffffffffffffffffffffffffffffff166108fc829081150290604051600060405180830381858888f19350505050915050919050565b6000611ca882600201548360010154611a0f90919063ffffffff16565b9050919050565b6000611ccb8260000160009054906101000a900460ff16611d9f565b9050919050565b6000611cdd82611caf565b611ce683611d38565b11158015611d035750611cf882611df8565b611d0183611caf565b105b15611d115760019050611d16565b600090505b919050565b6000611d31600283611b0190919063ffffffff16565b9050919050565b6000611d598260050154611d4b84611df8565b61183c90919063ffffffff16565b9050919050565b6000808284811515611d6e57fe5b0490508091505092915050565b6000611d9882600401548360010154611a0f90919063ffffffff16565b9050919050565b6000600280811115611dad57fe5b826002811115611db957fe5b1415611dc757429050611df3565b60016002811115611dd457fe5b826002811115611de057fe5b1415611dee57439050611df3565b600080fd5b919050565b6000611e158260030154836001015461183c90919063ffffffff16565b9050919050565b602060405190810160405280600081525090565b60c0604051908101604052806006905b600073ffffffffffffffffffffffffffffffffffffffff16815260200190600190039081611e405790505090565b6060604051908101604052806003905b60001515815260200190600190039081611e7e5790505090565b6101c060405190810160405280600e905b6000815260200190600190039081611ea95790505090565b6020604051908101604052806001905b600060ff16815260200190600190039081611ed157905050905600a165627a7a72305820373a0ac42412b2b6e043f8fc70778eae2079c8ad9024adee718e935e1907967a0029",
  "source": "pragma solidity ^0.4.18;\n\nimport \"contracts/Library/RequestLib.sol\";\nimport \"contracts/Library/RequestScheduleLib.sol\";\nimport \"contracts/Interface/TransactionRequestInterface.sol\";\n\ncontract TransactionRequest is TransactionRequestInterface {\n    using RequestLib for RequestLib.Request;\n    using RequestScheduleLib for RequestScheduleLib.ExecutionWindow;\n\n    RequestLib.Request txnRequest;\n\n    /*\n     *  addressArgs[0] - meta.createdBy\n     *  addressArgs[1] - meta.owner\n     *  addressArgs[2] - paymentData.donationBenefactor\n     *  addressArgs[3] - txnData.toAddress\n     *\n     *  uintArgs[0]  - paymentData.donation\n     *  uintArgs[1]  - paymentData.payment\n     *  uintArgs[2]  - schedule.claimWindowSize\n     *  uintArgs[3]  - schedule.freezePeriod\n     *  uintArgs[4]  - schedule.reservedWindowSize\n     *  uintArgs[5]  - schedule.temporalUnit\n     *  uintArgs[7]  - schedule.executionWindowSize\n     *  uintArgs[6]  - schedule.windowStart\n     *  uintArgs[8]  - txnData.callGas\n     *  uintArgs[9]  - txnData.callValue\n     *  uintArgs[10] - txnData.gasPrice\n     */\n    function TransactionRequest(\n        address[4]  addressArgs,\n        uint[11]    uintArgs,\n        bytes       callData\n    )\n        public payable\n    {\n        txnRequest.initialize(addressArgs, uintArgs, callData);\n    }\n\n    /*\n     *  Allow receiving ether.  This is needed if there is a large increase in\n     *  network gas prices.\n     */\n    function() public payable {}\n\n    /*\n     *  Actions\n     */\n    function execute() public returns (bool) {\n        return txnRequest.execute();\n    }\n\n    function cancel() public returns (bool) {\n        return txnRequest.cancel();\n    }\n\n    function claim() public payable returns (bool) {\n        return txnRequest.claim();\n    }\n\n    /*\n     *  Data accessor functions.\n     */\n     \n    // TODO: figure out why returning RequestLib.serialize() isn't working.\n    // Declaring this function `view`, although it creates a compiler warning, is\n    // necessary to return values from it.\n    function requestData() \n        public view returns (address[6], bool[3], uint[14], uint8[1])\n    {\n        if (txnRequest.serialize()) {\n            return (\n                txnRequest.serializedValues.addressValues,\n                txnRequest.serializedValues.boolValues,\n                txnRequest.serializedValues.uintValues,\n                txnRequest.serializedValues.uint8Values\n            );\n        } else {\n            revert();\n        }\n    }\n\n    function callData() \n        public view returns (bytes data)\n    {\n        data = txnRequest.txnData.callData;\n    }\n\n    /**\n     * @dev Proxy a call from this contract to another contract.\n     * This function is only callable by the scheduler and can only\n     * be called after the execution window ends. It's purpose is to\n     * provide a way to transfer assets held by this contract somewhere else.\n     * For example, if this request was used to buy tokens during an ICO,\n     * it would become the owner of the tokens and this function would need\n     * to be called with the encoded data to the token contract to transfer\n     * the assets somewhere else. */\n    function proxy(address _to, bytes _data)\n        public payable returns (bool success)\n    {\n        require(txnRequest.meta.owner == msg.sender\n                && txnRequest.schedule.isAfterWindow());\n        return _to.call.value(msg.value)(_data);\n    }\n\n    /*\n     *  Pull based payment functions.\n     */\n    function refundClaimDeposit() public {\n        txnRequest.refundClaimDeposit();\n    }\n\n    function sendDonation() public returns (bool) {\n        return txnRequest.sendDonation();\n    }\n\n    function sendPayment() public returns (bool) {\n        return txnRequest.sendPayment();\n    }\n\n    function sendOwnerEther() public returns (bool) {\n        return txnRequest.sendOwnerEther();\n    }\n}\n",
  "sourcePath": "contracts/TransactionRequest.sol",
  "compiler": {
    "name": "solc",
    "version": "0.4.18+commit.9cf6e910.Emscripten.clang"
  },
  "schemaVersion": "1.0.1",
  "updatedAt": "2017-12-30T17:51:08.110Z"
}